:0A0000000C9449000C9400000C94CD
:10000A0000000C9400000C9400000C9400000C9466
:10001A0000000C9400000C9400000C9400000C9456
:10002A0000000C9400000C9400000C9400000C9446
:10003A0000000C9400000C9400000C9400000C9436
:10004A0000000C9400000C9400006400C8009001A9
:10005A002003F8FFFCFFFEFFFFFF54656D703A2591
:10006A00342E326600002D4E414E000080C0010041
:10007A002D4E414E00494E460000020069027600AC
:10008A0001006D0278000000F894EE27ECBBF1E065
:10009A00F5BFE5BF8DE0A2E0BB27ED938A95E9F7AE
:1000AA0080E098E0A0E6ED930197E9F7E4E8F0E054
:1000BA0085919591009761F0A591B591059015905C
:1000CA00BF01F00105900D920197E1F7FB01F0CF16
:1000DA00EFE5EDBFE8E0EEBFC0E6D2E00C947500B4
:1000EA006497E0E0E88BE98BEA8BEB8B0E9445078B
:1000FA00A0E10E94F8040E94C604A0E0B0E00E94B9
:10010A004D040E942F06FE01FA93EA93E4E6F0E01A
:10011A00FA93EA93EC89FD896E897F890E94E40942
:10012A0084E00E94CD032896E0E0EA93A0E00E94D2
:10013A00B904DE010E94E704ACE2B1E00E943B0789
:10014A00DCCFFFCFBA93AA931A930A93AA81BB81F1
:10015A0012960E94C409309729F1AA81BB8114968C
:10016A000E94C4098F01309761F00230E0E01E0757
:10017A0080F0F80131978F01AA81BB811496ED9323
:10018A00FC93AA81BB8112960E9434063197AC81F6
:10019A00A083AA81BB810E94C409FF2312F00E9496
:1001AA00340606C0AA81BB81EFEFFFEFED93FC9303
:1001BA0019810881259608950E943A06E0E8EA83A3
:1001CA00EFE3EB830E94010AEE85FF85EF3FAFEF75
:1001DA00FA0749F4E885F985FA93EA93A0E7B0E0CB
:1001EA000E942605B7C0EF3FAFE7FA0749F4E88552
:1001FA00F985FA93EA93A1E7B0E00E942605AAC01E
:10020A00AB85A73010F0E6E0EB871B85E12F115094
:10021A00E03019F00E944106F9CFEC85FD856E8524
:10022A007F850E94FB0921F430E00E9441062DC01F
:10023A003B850E94500609F008F40BC00E94410653
:10024A000E94500628F00E945B060E946006F8CFC2
:10025A000DC00E94500640F40E945B060E946C0684
:10026A000E9473063150F5CF0E944106EC85FD8548
:10027A006E857F850E9478060E9473060E9450064A
:10028A0020F00E945B060E94600610E0EB85E117F1
:10029A00A8F1AC81BD818E819F810E947F060E9458
:1002AA007806DF01CB010E947D05EC83FD836E8316
:1002BA007F830E945B060E94EF080E94DE070E2FD2
:1002CA000E9486060E948D06FF27662777270E94CE
:1002DA001708AC81BD818E819F810E94A1080E946E
:1002EA005B060E9492060E947306E12F1F5FE030B0
:1002FA0069F60E948606EEE2EC93C8CF0E94970642
:10030A003197AA85A08330302CF43195A885B98518
:10031A00EDE203C0A885B985EBE2EC930E9497064B
:10032A000E9497063197BF01A32FEAE00E947E0937
:10033A00E05DDB01EC930E9497063197BF01A32F82
:10034A00EAE00E94A809E05DDB01EC93A885B98583
:10035A00E0E0EC930E94080A60960895BA93AA9383
:10036A00EF9761970E94FF0910E0FE01E85AFF4FDC
:10037A000190F081E02DE887F987FE01EA5AFF4FE4
:10038A000190F081E02DEE83FF83AE81BF81E0E032
:10039A00F0E0ED93FC93DE01A45ABF4F0E943406AD
:1003AA003197E4912E2FE03009F4E9C1E12FE030D2
:1003BA0039F4253211F411E002C00E949D06DEC113
:1003CA00E130C1F4253219F40E949D06D6C112E02B
:1003DA00E0E0ED8B00E02D3211F401E0CFC12B32C9
:1003EA0019F4EBE2ED8BCAC1203219F4E0E2ED8B8D
:1003FA00C5C102C0E23039F450E013E0203311F4F1
:10040A000068BCC102C0E33091F4203310F02A33F3
:10041A0008F007C0AAE05A9F502DE22FE0535E0F62
:10042A00ADC140E02E3211F414E0A8C10FC0E4308F
:10043A0099F4203310F02A3308F008C00062AAE0C9
:10044A004A9F402DE22FE0534E0F98C12C3619F4E3
:10045A00026015E093C103C0E53009F08FC1E22FB5
:10046A00E33659F40E94A4060E94AB060E94A40631
:10047A00A481AA930E94B20680C1E53411F0E53640
:10048A0009F403C0E63609F048C0FE017696EE8705
:10049A00FF870E94B8060E94C8090E94BF060E94F0
:1004AA00C406AD85AA2332F0AD89AB3259F0A03229
:1004BA0081F017C00E94C6060E94AB070E94BF06C1
:1004CA00EDE2ED8B07FF05C0ED89EA930E94B206C3
:1004DA0008C0EE85FF853196EE87FF873197AD8993
:1004EA00A08305FF46E0263651F40E94C6060E9404
:1004FA00E4094A93AB89BC890E94940509C00E9409
:10050A00C6060E94E4094A932A93AC89BD8954DE3F
:10051A00FE0176960E94CB061EC0E33739F40E948C
:10052A00C4060E94D3060E94CB060EC0E037C1F46F
:10053A000E94C4060E94D306EE87FF87AE85BF8558
:10054A000E943F051E2F08600F77403011F04117B7
:10055A0008F001C0142F40E0E0E0EC8B30E06DC001
:10056A00E43611F0E93611F4046002C0E537A1F46B
:10057A00EAE0EC8B01FF08C0E0E0FAEC6AE97BE311
:10058A000E942F061AE022C0E0E1F7E260E070E084
:10059A000E942F0615E01AC0E83511F4086003C05E
:1005AA00E83709F0EAC0E0E1EC8B01FF08C0E0E0BF
:1005BA00F0E060E070E10E942F0618E007C0E0E07A
:1005CA00F0E160E070E00E942F0614E0403011F084
:1005DA000F7701C041E001FF08C00E94C4060E94D3
:1005EA00B80614960E94C8090FC002FF07C00E94ED
:1005FA00C4060E94D3060E94660906C00E94C40669
:10060A000E94D30666277727EA87FB876C877D8750
:10061A0002FF12C0AD85AA2342F40E94C6060E94B8
:10062A0058090E94BF06EDE2ED8BED89E03019F022
:10063A001F5F4F5F01C00B7F342F00FD14C01517D9
:10064A0010F4351708F00FC007FF08C002FF04C0F6
:10065A000B7F2D89115001C020E301C020E20E94C6
:10066A009D065150ECCF141790F4006102FF06C0AA
:10067A000E94D80609F0515011504150E0E3EA9324
:10068A000E94B206503009F051504150ECCF312F40
:10069A00EC89E030B9F43030A1F003FF06C0EE85F2
:1006AA00FF852591EE87FF8705C0AE85BF852D9111
:1006BA00AE87BF870E949D06503009F051503150D5
:1006CA00EACF51C00E94EA060E9483092E2F2A30DF
:1006DA0030F003FF02C0295C01C0295A01C0205D25
:1006EA0004FD21C0213360F4A889B9898A899B89CC
:1006FA00A130E0E0BE07E0E08E07E0E09E0709F4E3
:10070A000BC0431740F4531710F000FF01C010C08C
:10071A0020E207FF08C020E3006102FF04C00E9434
:10072A00D80609F051500E949D06503009F05150E8
:10073A0031500E94EA060E94B4090E94BF06EC8961
:10074A00A889B9898A899B89FF27662777270E9402
:10075A0083090E942F06E889F9896A897B890E94A0
:10076A00FB0909F0AFCF00FF08C0503031F05150FB
:10077A00E0E2EA930E94B206F8CF10E00CCEAE8116
:10078A00BF810E94C4090E94060AEF966F960895D7
:10079A00FF92F82E26970E94010A0E94F3063097CC
:1007AA0019F4EFEFFFEF23C0DE0116960E945409F9
:1007BA008D010E94F306EE83FF83E0E0E887E98774
:1007CA00DE011A960E9454090E94C409FA93EA9318
:1007DA001A930A93E7EAF0E0FA93EA93DE011A968B
:1007EA00BDDD9F01AE81BF81E0E0EC93F9010E947B
:1007FA00080A2A96FF900895BA93AA931A930E9418
:10080A004507E03011F4E0E0EBC0E981FA81309766
:10081A0081F0A5E50E948B0710E0A981BA81ED91CC
:10082A00A983BA83AE2F0E948B071F5F1830A8F3E3
:10083A0003C0ACEC0E948B07E1E0D2C0BA93AA9342
:10084A000E94010AAC81BD81D7DFE03011F4E0E0FB
:10085A001BC0AEEB0E948B0710E020E632E03F930C
:10086A002F932F5F3F4F0E948607AF91BF91EC9362
:10087A001F5F1930A0F3E0E6F2E0FA93EA93A9E0E9
:10088A000E9495070E946B090E94080A26960895FD
:10089A00BA93AA931A93A981BA81D0DFE03019F4E6
:1008AA000E94FA069DC0E0916402E295EF70E69517
:1008BA00E3701E2FA981BA819FDFE03019F40E94EC
:1008CA00FA068EC0A4E40E948B07E12FA4E5B0E0EB
:1008DA00F0E0EE0FFF1FEA0FFB1F0E94D2090E94F1
:1008EA003B07A981BA81AADFE03019F40E94FA060F
:1008FA0077C00E944507E12FACE5B0E0F0E0EE0FCB
:10090A00FF1FEA0FFB1F0E94CE09A0916002B0915F
:10091A006102EA23FB230E94FF06A0E0B0E080E820
:10092A009DE30E94A1085CC0AA93E5B3EF70AE2FC5
:10093A00E881E07FEA2BE5BB8DE08A95F1F7AA9A78
:10094A008DE08A95F1F7AA988DE08A95F1F777C03C
:10095A00AA93A881E9DFE881E295E883A881E4DF28
:10096A0085E88A95F1F76BC0AA93E881F0E0E75928
:10097A00FD4FE081A981AE0FEBDF598048802296B6
:10098A000895A2E00E940407ACE0E2DFA1E00E9421
:10099A000407E0E04E2E5E2E0895AA93A881AA309D
:1009AA0011F0571448F0E0E0EA934394A42DDCDFF9
:1009BA00A881AA3009F443C05394A89AA881C8DF31
:1009CA00A8983DC0BA93AA931A93A981BA81ED91C6
:1009DA00A983BA831E2FE03019F0A12FDEDFF5CFED
:1009EA00188123960895AA93E4B3E06FE4BBA29A10
:1009FA00A09AA19AAA98A898A9987880E881E0581C
:100A0A00E0936B02E881E054E0936C02A4E1B0E069
:100A1A000E943B070E940A070E940A070E940A07CF
:100A2A00A0E282DF88EC90E00197F1F7A8E290DF7C
:100A3A00A4E08EDFA5E88CDFA6E08ADFA2DF21969C
:100A4A000895BA93AA93E991F991A991B991CD011F
:100A5A0005900D920020E1F7FC010895BA93AA933C
:100A6A00A991B991EE27FF276D91662311F031966E
:100A7A00FBCF0895BA93AA93AA27BB27E991F991C4
:100A8A000590002011F01196FBCFFD0108950E94F8
:100A9A00E9097B816A81F981E88177FB770F67FD34
:100AAA007160972F9E5781F078F0983190F4AA27B9
:100ABA00BB27882708948795B795A7959A95D1F764
:100ACA00EA23FB23682305C0E8947727EE27FF274C
:100ADA0066276F77769508F4606877F9A991B991D6
:100AEA0089919991EA17FB076807790797FB089597
:100AFA000E94E9090E94DA090E944C050E94DF0956
:100B0A0019F40E94D50909C0E6F70E94D509A0E0A8
:100B1A00B0E080E89FE30E944A0824960895A5D091
:100B2A00E0E0EA83EFE3EB831A930A93EB85FC8513
:100B3A00EF3FAFEFFA0731F470D1AAE7B0E00E94B5
:100B4A00260584C0EF3FAFE7FA0731F466D1ABE779
:100B5A00B0E00E9426057AC0AC85AA2352F4E98542
:100B6A00FA856B857C850E94AB075CD160D1EDE28A
:100B7A00EC93A885A73010F0E6E0E8871885E12F06
:100B8A001150E03021F05AD1B5D05DD1F8CF60D103
:100B9A000E94510847D110E0E0E0F0E060E87FE30E
:100BAA0052D156D10E94340968F048D190D04BD125
:100BBA001F5F173230F031D1AFE7B0E00E9426054F
:100BCA0045C0EFCF103021F432D1E0E3EC931DC0E1
:100BDA00E12F1150E030C9F031D18CD084D0DF013F
:100BEA00CB010E947D052FD133D10E94EF080E94CC
:100BFA00DE070E2F1CD18CD0F0E020D1FBD00E9452
:100C0A00A1082FD18AD00ED1E3CFE885E030D1F008
:100C1A000ED1EEE2EC93E885E150E887EF5F91F0C0
:100C2A0020D155D0FFD0E985FA856B857C850E9455
:100C3A00DE070E2FFCD06CD0F0E013D1DBD06DD0E4
:100C4A00F1D0E9CFAE81BF81E0E0EC931981088150
:100C5A002D960895E88BF98B6A8B7B8B0895ED911D
:100C6A00FD913196FE93EE930895BA93AA93249731
:100C7A00E0E0E883E9830895AC81BD818E819F819C
:100C8A00E0E0F0E060E271E40E94A108EC83FD83F9
:100C9A006E837F830895EC81FD816E817F81AC85AF
:100CAA00BD858E859F850E9434090895AC85BD85D2
:100CBA008E859F850895EDECFCEC6CEC7DE30E943B
:100CCA00A108EC87FD876E877F873F5F0895E0E084
:100CDA00F0E060E271E40E94A1080895EC87FD87C4
:100CEA006E877F870895A0E0B0E080E09FE30E94CE
:100CFA0051080895EDECFCEC6CEC7DE30E94A10830
:100D0A000895A885B9851196A887B9871197089576
:100D1A00E02FE05DEC93E02F08950E94EE090E9417
:100D2A004A080895E885F9853196E887F98708958C
:100D3A002A93AF81B885E985FA8509950895FE0158
:100D4A00E65AFF4F0190F081E02D08953497DE01B5
:100D5A00A65ABF4FED93FC930895AF81B885E985F4
:100D6A00FA8509950895DE01A65ABF4F0D90BC91E8
:100D7A00A02D0895EA87FB876C877D870895DFDFBA
:100D8A00E5CFEA85FB856C857D850895EE87FF872B
:100D9A00AE85BF850E9433051E2F0895E4DF1496A1
:100DAA000E94C40908950B7FED89EA93DE01A95ACE
:100DBA00BF4F0D90BC91A02DFE01E75AFF4F019045
:100DCA00F081E02D099550300895E889F9896A89FA
:100DDA007B89AA85BB858C859D850895DE011C9635
:100DEA000E9454090E94C4090895E0E0FCE36CE102
:100DFA0076EC08950E9466090E94170808950E94D9
:100E0A00AD04A3E0B0E00C943B07A0E30E94990470
:100E1A0088EC90E00197F1F70895EE81FF81FA934B
:100E2A00EA930895E987FA876B877C870895AE81EC
:100E3A00BF811196AE83BF8311970895AA81BB81A2
:100E4A008C819D810895EA83FB836C837D83089559
:100E5A00EA81FB816C817D81A985BA858B859C8518
:100E6A000895A985BA858B859C850895109639F0D1
:100E7A00A89580ED97E00197F1F71197C9F70895C2
:100E8A00EE27C098B89A80EC93E00197F1F7B898EA
:100E9A0085E28A95F1F7B09B08958BEC8A95F1F774
:100EAA00B09BE1E08CE093E00197F1F70895B89ADE
:100EBA0085E08A95F1F7B8988DE18A95F1F78894DB
:100ECA00B0990894E79585ED8A95F1F70895E89425
:100EDA00B89A85E08A95F1F770FDB89883E28A9509
:100EEA00F1F7B09903C070FF03C0089570FF089529
:100EFA0088EC8A95F1F7B8988DE08A95F1F76894AD
:100F0A00089568E0D4DF6A95E9F708957A2F68E0D2
:100F1A00EE27DDDF26F477956A95D9F7E3950895EC
:100F2A00EE27AA2389F08A2F68E1A881B98198E07F
:100F3A00FD917F2F7E27779508F4E627E795F695AA
:100F4A009A95B9F78A9599F722960895309760404D
:100F5A00704009F070580895552342F4503811F43E
:100F6A00E0FF04C03196691F791F6BF050E85727DC
:100F7A0011F45F93CFC05F3F31F0660F000C5795B5
:100F8A006795752F08955F9300200AF0CFC0C8C0F7
:100F9A0050E8192E1522880F991F9527550F879506
:100FAA0050E8072E0522660F771F7527550F67959C
:100FBA000895689401C0E8945F93F2DF703818F0DE
:100FCA007F3F08F4A7C056E1571BAAF45195583041
:100FDA000EF4593030F0EFEFFFEF6FEF7FE777F95C
:100FEA001AC077275523B9F0EE0FFF1F661F771F28
:100FFA005A95D1F710C07727583028F0EF2FF62FDF
:10100A00672F5850F9CF552331F076956795F795A4
:10101A00E7955A95D1F700200AF445D15F910895D2
:10102A00689401C0E894309760407040B1F00024A1
:10103A0026F0772312F4009436D1172E7EE1112080
:10104A0032F07A95EE0FFF1F661F111CF9CFEF2FB2
:10105A00F62F612D5F938ADF5F9108954F93AF0159
:10106A00FD01DA01AB01BC01CA01402D012C142E8D
:10107A004F910895EA0FFB1F681F0895E095F095B8
:10108A006095EF5FFF4F6F4F08955F9381DF903850
:10109A0071F150E8152604C05F937ADF903839F170
:1010AA00703821F1572F591B2BF112F4D7DFFACFE1
:1010BA00583118F0AA27BB278827583028F0AB2FB9
:1010CA00B82F88275850F9CF552329F08695B79518
:1010DA00A7955A95D9F7502D512572F0CBDF38F4E0
:1010EA006795F795E795739513F420C0B7DF3EDF50
:1010FA005F910895D8F7FBCFEA1BFB0B680B51F001
:10110A0010F40094BBDF662392F3EE0FFF1F661FF5
:10111A007A95CBF7EE27FF27662777275F91089501
:10112A00EFEFFFEF6FE77FEF5F910895EFEFFFEFCC
:10113A006FE77FE75F9108955F932ADF703851F375
:10114A00903841F301240894791F23F41CF30020FA
:10115A003AF3ECCF0F921F932F933F934F9311279C
:10116A0022279927689FA0018F9F302D410D591F73
:10117A006B9F300D411D591F8E9F27D0BF9F25D0D1
:10118A006A9F23D0BE9F1DD0AF9F1BD0AE9F110D6B
:10119A00291F391F491F591FE32FF42F652F522F7B
:1011AA004F913F912F911F910F9066232AF0550F6F
:1011BA00EE1FFF1F661F02C073954BF2CDDE5F91D3
:1011CA000895100D211D391F02C0200D311D491F20
:1011DA00591F08955F93DCDE703821F411200AF458
:1011EA009FCFA4CF903809F495CF01240894970B88
:1011FA001BF4D4F30020F3CF792F1F932F933F933F
:10120A004F9311241127222733274427552790E289
:10121A00AE17BF078607410730F0AE1BBF0B860B20
:10122A00410B089401C08894551F221F331F111CBB
:10123A00AA1FBB1F881F441F9A9551F7F901612DF8
:10124A004F913F912F911F91662332F0550FEE1F58
:10125A00FF1F661F7A9543F27FDE5F9108959923F7
:10126A009AF0772342F0971748F029F4AE17BF0790
:10127A00860720F031F098948894089598940894F9
:10128A0008951894889408957723C2F7971798F3C6
:10129A00A9F7EA17FB07680788F399F3ECCF00244C
:1012AA00AF0DB01D0895F09560957095E195FF4FCB
:1012BA006F4F7F4F0895FE2FFF0FFF0B6F2F7F2F6A
:1012CA0008956F2F660F660B762F0895EE23E1E0DF
:1012DA0009F0EE270895002498E0AA0F001C0E1AC0
:1012EA0010F40E0E01C0A1609A95B9F7EA2FA02D4D
:1012FA00089539D0F0DF0EF4E19508953F934F93A6
:10130A005F93002411244427552730E2AA0FBB1FFC
:10131A00881F991F001C111C441F551F0E1A1F0AF3
:10132A00460B570B28F40E0E1F1E461F571F01C0EF
:10133A00A1603A9559F7FD01BC01D001CA015F913C
:10134A004F913F910895E894A7FF02C0A195689430
:10135A00E7FDE195C0DFEA2F0EF4E1950895CEDFAF
:10136A00FD01BC010895E894E7FF02C0E195689485
:10137A00A7FF04C0A19500F8039400FA0895ED911F
:10138A00FC9111970895ED91FD916D917C911397C0
:10139A0008950590F491E02D0895A591B4910895CA
:1013AA00E881F9816A817B810895A881B9818A815E
:1013BA009B810895E883F9836A837B8308957A93EE
:1013CA006A93FA93EA9308959A938A93BA93AA939B
:1013DA000895182E862F612D192E972F712D1B2EE9
:1013EA00BF2FF12D1A2EAE2FE12D089530976040B0
:1013FA00704008955A934A933A932A931A930A93F8
:10140A0008955D814C813B812A8119810881089563
:00000001FF
