:080000000C9450000C94000068
:100008000C9400000C9400000C9400000C94000068
:100018000C9400000C9400000C9400000C94000058
:100028000C9400000C9400000C9400000C94000048
:100038000C9400000C9400000C9400000C94000038
:100048000C9400000C9400000C940000436F6E6E3A
:10005800656374696F6E206572726F722100253056
:1000680032752E253032752C253034752E253032D8
:10007800752C256400002D4E414E000001002D4EC8
:10008800414E00494E46000080C00100A002840095
:100098000200A40290000000F894EE27ECBBF1E007
:1000A800FBBFEBBFE5BF8DE0A2E0BB27ED938A95D0
:1000B800E9F780E098E0A0E6ED930197E9F7E2E937
:1000C800F0E085919591009761F0A591B591059023
:1000D8001590BF01F00105900D920197E1F7FB0122
:1000E800F0CFEFE5EDBFE8E0EEBFC0E6D2E00C945C
:1000F8006803AA930E941309A8810E940C0B0E940E
:10010800E70A0EC0AA931A930E9413090E941B09BA
:10011800A0E00E94F10A1E2F0E94E70AE12F188131
:1001280022960895AA9322970E94D80AACEE0E94BC
:100138000C0BAA810E940C0B0E941B09A1E00E94D3
:10014800F10AE883A0E00E94F10AE9830E94E70A25
:10015800E881F9810C941C041A930A9300E017E2D1
:10016800E5EFEA93A02FC5DFE4EFEA93A12FC1DF03
:10017800099119910895A0EDC5DFE83519F0E0E07F
:10018800F0E00895E0EEEA93A6EBB3DFA4E6B0E072
:100198000E94240BA3EFB6DFE170E13029F4A4E656
:1001A800B0E00E94240BF6CFA8E8BCDFE0936C0215
:1001B800F0936D02AAE8B6DFE0936E02F0936F0247
:1001C800ACE8B0DFE0937002F0937102AEE8AADF0A
:1001D800E0937202F0937302A0E9A4DFE093740243
:1001E800F0937502A2E99EDFE0937602F09377021E
:1001F800A4E998DFE0937802F0937902A6E992DF08
:10020800E0937A02F0937B02A8E98CDFE0937C020A
:10021800F0937D02AAE986DFE0937E02F0937F02E5
:10022800ACE980DFE0938002F0938102AEE97ADFE7
:10023800E0938202F09383028FDFE1E0F0E008951B
:100248002497E0E0EB830E94D80AACEE0E940C0BE6
:10025800A7EF0E940C0B0E941B090E942009A1E035
:100268000E94F10AE8830E942909E0936402F0934E
:10027800650260936602709367020E942009A0E0FD
:100288000E94F10AE8830E94E70A0E942909E09384
:100298006002F09361026093620270936302249695
:1002A8000895BA93AA932897CBDF0E9433090E9436
:1002B8003C097F936F93FF93EF93A0916C02B091E9
:1002C8006D02882799270E9443090E94380DAF9133
:1002D800BF918F919F910E94EA0CE0916E02F0917C
:1002E8006F020E9448090E944F090E9456090E9405
:1002F80033090E945B09DF01CB01E0916C02F091A8
:100308006D02662777270E94E50D0E94E50C0E9482
:1003180062090E946909DF01CB01E0917002F09146
:1003280071020E944809E0E0F0E460E070E00E9499
:10033800750D0E9470090E9473090E947609E09366
:100348006802F093690260936A0270936B02A5E0F9
:10035800B0E080E090E00E94380DE058FF4F6F4F0A
:100368007F4FDF01CB01E0E0F1E060E070E00E9448
:10037800750DA885B9850E94C70DE1E0F0E02A96C1
:100388000895BA93AA932C97A0916802B091690234
:1003980080916A0290916B020E9443090E94750D38
:1003A800E050FA4F604070400E947D090E94820927
:1003B8000E9487090E9462090E944F09DF01CB0150
:1003C800E0917C02F0917D020E940E0D0E94380D92
:1003D8000E945609E0917A02F0917B020E948E09F0
:1003E8000E94030D0E9476090E9456090E949409F2
:1003F8000E9487097F936F93FF93EF93A0917802F0
:10040800B09179020E94130DE0E0F0E061E070E045
:100418000E94380DAF91BF918F919F910E94DB0C84
:100428000E945609E0917602F09177020E940E0D23
:100438007F936F93FF93EF930E9482090E9487092D
:100448007F936F93FF93EF930E9482090E9487091D
:10045800AF91BF918F919F910E9499090E949E0927
:100468000E94750DAF91BF918F919F910E9499093C
:100478000E943C097F936F93FF93EF93E09174027E
:10048800F09175020E948E09DF01CB010E94430999
:100498000E94750DAF91BF918F919F910E94E00CC2
:1004A800E0E0F0E064E070E00E94A309E050F0486A
:1004B8006F4F7F4FDF01CB01E0917202F091730221
:1004C800662777270E949909E0E0F0E860E070E08D
:1004D8000E94A3090E94F20D19F4E0E0F0E0A1C027
:1004E800A0916402B09165028091660290916702C2
:1004F800E0E0F0E060E170E00E94E50C7F936F932C
:10050800FF93EF930E9494090E946909AF91BF91EC
:100518008F919F910E94EA0CE5E3FCE060E070E0B7
:100528000E94180D0E9470090E94AB09A030E0E0FB
:10053800BE07E0E08E07E0E89E0768F40E947309B2
:100548000E94030DDF01CB01E885F9856A857B856B
:100558000E94500D0AC0E885F9856A857B850E944E
:10056800AB090E94500D0E94030D0E94D60DE09128
:100578008202F09183020E940E0D7F936F93FF9386
:10058800EF930E94AE097F936F93FF93EF930E94BE
:10059800AE09AF91BF918F919F910E94180DDF0115
:1005A800CB010E949E090E94500DAF91BF918F917F
:1005B8009F910E9499090E9469090E947D090E94E1
:1005C800AB09E4E0F0E060E070E00E94500DDF016C
:1005D800CB01E0918002F09181020E9448090E94BB
:1005E8009E090E94750D0E94B6090E9482090E9408
:1005F800E00CE0917E02F0917F020E940E0D0E94B5
:10060800E00C0E945B090E94AB090E94DB0C0E946F
:1006180070090E947309AC85BD850E94C70DE1E091
:10062800F0E02E960895AA93E881E7B98BE18A95C0
:10063800F1F7369A349BFECF349AE4B1F5B137C05E
:10064800AA93E0E0E7B9E0E8E6B9E881F0E0E23053
:10065800A0E0FA0711F4309A28C0E430A0E0FA07C5
:1006680011F4319A22C0E830A0E0FA0719F4E6B193
:10067800E3601AC0E031A0E0FA0711F4329A15C01D
:10068800E032A0E0FA0719F4E6B1E5600DC0E03405
:10069800A0E0FA0739F0E038A0E0FA0719F4E6B16B
:1006A800E76002C0E6B1E660E6B9E0E0E0BF2196A7
:1006B8000895E0E0EBB9E8E0EAB9E6E8E0BDE0E09B
:1006C800E0BDE3E3E9B90895E0E0EABBEBBB0E94D3
:1006D800D30AA0E10E947B08A0E4B2DFEADF4BDD89
:1006E800309749F4E0E0EA93A0E00E946208A4E5AC
:1006F800B0E00E940904A4E9B2E0D3DDA8E9B2E0C1
:1007080040DEA0E090DFACE9B2E0662777270E94E0
:100718009A0B0E94C70DA0919C02B0919D028091F6
:100728009E0290919F02E0E0F0E068EC72E40E9483
:10073800240CDF01CB01E0E0F0EC6FE774E40E94E9
:10074800720C0E94630B2F01E0E0EA93A0E00E9484
:100758006208A0919702AA239AF4ADE240D0A09132
:100768009402B09195020E94720766277727E0935A
:100778009402F0939502609396027093970225C0B5
:10078800E4E8F2E0FA93EA93E6E6F0E0FA93EA9313
:100798000E94BC090E94750D0E94DB0D0E94BC09D5
:1007A8000E948A0D0E94C9090E94500D0E94C90921
:1007B8000E94860D0E94DB0DF2010E940E0D0E9420
:1007C800DB0D84E10E943E076896A4E8B2E00E942F
:1007D800FA03A0EDB7E00E94240B8DCFFFCFAA93B8
:1007E8005D9BFECFE881ECB90C94A708BA93AA9355
:1007F8001A93A981BA81ED91A983BA831E2FE0309B
:1008080019F0A12FECDFF5CF10C0BA93AA931A9371
:10081800E981FA813196E983FA833197E4911E2FB1
:10082800E03019F0A12FDBDFF3CFAAE0D8DF188181
:1008380023960895BA93AA931A930A93AA81BB811F
:1008480012960E94BD0D309729F1AA81BB8114969A
:100858000E94BD0D8F01309761F00230E0E01E0765
:1008680080F0F80131978F01AA81BB811496ED932E
:10087800FC93AA81BB8112960E94D8093197AC815A
:10088800A083AA81BB810E94BD0DFF2312F00E94A4
:10089800D80906C0AA81BB81EFEFFFEFED93FC9367
:1008A80019810881259608950E94DE09E0E8EA8307
:1008B800EFE3EB830E94F80DEE85FF85EF3FAFEF86
:1008C800FA0749F4E885F985FA93EA93AEE7B0E0C8
:1008D8000E94A908B1C0EF3FAFE7FA0749F4E885DD
:1008E800F985FA93EA93AFE7B0E00E94A908A4C09B
:1008F800AB85A73010F0E6E0EB871B85E12F1150A0
:10090800E03019F00E94E509F9CFEC85FD856E8588
:100918007F850E94F20D21F430E00E94E5092DC088
:100928003B850E94ED0909F008F40BC00E94E50917
:100938000E94ED0928F00E94F8090E94FD09F8CFED
:100948000DC00E94ED0940F40E94F8090E94090AAE
:100958000E94100A3150F5CF0E94E509EC85FD850B
:100968006E857F850E94150A0E94100A0E94ED0973
:1009780020F00E94F8090E94FD0910E0EB85E117BC
:1009880078F10E9494090E941C0A0E94150ADF014E
:10099800CB010E9400090E94B6090E94F8090E9432
:1009A800720C0E94610B0E2F0E94230A0E942A0AD1
:1009B800FF27662777270E949A0B0E9494090E94B6
:1009C800240C0E94F8090E942F0A0E94100AE12FA5
:1009D8001F5FE03099F60E94230AEEE2EC93CECF37
:1009E8000E94340A3197AA85A08330302CF43195BF
:1009F800A885B985EDE203C0A885B985EBE2EC933B
:100A08000E94340A0E94340A3197BF01A32FEAE0FA
:100A18000E944B0DE05DDB01EC930E94340A319794
:100A2800BF01A32FEAE00E947A0DE05DDB01EC93A1
:100A3800A885B985E0E0EC930E94FF0D60960895C3
:100A4800BA93AA93EF9761970E94F60D10E0FE0102
:100A5800E85AFF4F0190F081E02DE887F987FE0101
:100A6800EA5AFF4F0190F081E02DEE83FF83AE81BB
:100A7800BF81E0E0F0E0ED93FC93DE01A45ABF4FA4
:100A88000E94D8093197E4912E2FE03009F4E9C18A
:100A9800E12FE03039F4253211F411E002C00E9450
:100AA8003A0ADEC1E130C1F4253219F40E943A0A4B
:100AB800D6C112E0E0E0ED8B00E02D3211F401E048
:100AC800CFC12B3219F4EBE2ED8BCAC1203219F4F5
:100AD800E0E2ED8BC5C102C0E23039F450E013E02A
:100AE800203311F40068BCC102C0E33091F4203314
:100AF80010F02A3308F007C0AAE05A9F502DE22FC1
:100B0800E0535E0FADC140E02E3211F414E0A8C1ED
:100B18000FC0E43099F4203310F02A3308F008C0ED
:100B28000062AAE04A9F402DE22FE0534E0F98C181
:100B38002C3619F4026015E093C103C0E53009F0C2
:100B48008FC1E22FE33659F40E94410A0E94480AF5
:100B58000E94410AA481AA930E944F0A80C1E534E9
:100B680011F0E53609F403C0E63609F048C0FE0185
:100B78007696EE87FF870E94550A0E94C10D0E9453
:100B88005C0A0E94610AAD85AA2332F0AD89AB32B6
:100B980059F0A03281F017C00E94630A0E942E0B00
:100BA8000E945C0AEDE2ED8B07FF05C0ED89EA9330
:100BB8000E944F0A08C0EE85FF853196EE87FF87B1
:100BC8003197AD89A08305FF46E0263651F40E948F
:100BD800630A0E94DB0D4A93AB89BC890E947C079B
:100BE80009C00E94630A0E94DB0D4A932A93AC89CC
:100BF800BD895ADEFE0176960E94680A1EC0E33758
:100C080039F40E94610A0E94700A0E94680A0EC0A4
:100C1800E037C1F40E94610A0E94700AEE87FF87DC
:100C2800AE85BF850E94C2081E2F08600F7740302E
:100C380011F0411708F001C0142F40E0E0E0EC8B00
:100C480030E06DC0E43611F0E93611F4046002C0FA
:100C5800E537A1F4EAE0EC8B01FF08C0E0E0FAEC2C
:100C68006AE97BE30E94750A1AE022C0E0E1F7E234
:100C780060E070E00E94750A15E01AC0E83511F4CA
:100C8800086003C0E83709F0EAC0E0E1EC8B01FF37
:100C980008C0E0E0F0E060E070E10E94750A18E04A
:100CA80007C0E0E0F0E160E070E00E94750A14E03F
:100CB800403011F00F7701C041E001FF08C00E94E9
:100CC800610A0E94550A14960E94C10D0FC002FFC6
:100CD80007C00E94610A0E94700A0E940E0D06C099
:100CE8000E94610A0E94700A66277727EA87FB87B5
:100CF8006C877D8702FF12C0AD85AA2342F40E944B
:100D0800630A0E94EF0C0E945C0AEDE2ED8BED890C
:100D1800E03019F01F5F4F5F01C00B7F342F00FDDB
:100D280014C0151710F4351708F00FC007FF08C0D6
:100D380002FF04C00B7F2D89115001C020E301C0C0
:100D480020E20E943A0A5150ECCF141790F4006147
:100D580002FF06C00E947A0A09F051501150415012
:100D6800E0E3EA930E944F0A503009F05150415095
:100D7800ECCF312FEC89E030B9F43030A1F003FF2B
:100D880006C0EE85FF852591EE87FF8705C0AE85F5
:100D9800BF852D91AE87BF870E943A0A503009F06F
:100DA80051503150EACF51C00E948C0A0E94500D18
:100DB8002E2F2A3030F003FF02C0295C01C0295AC7
:100DC80001C0205D04FD21C0213360F4A889B989E0
:100DD8008A899B89A130E0E0BE07E0E08E07E0E069
:100DE8009E0709F40BC0431740F4531710F000FF97
:100DF80001C010C020E207FF08C020E3006102FF25
:100E080004C00E947A0A09F051500E943A0A5030F0
:100E180009F0515031500E948C0A0E94860D0E94A0
:100E28005C0AEC89A889B9898A899B89FF27662782
:100E380077270E94500D0E94750AE889F9896A8906
:100E48007B890E94F20D09F0AFCF00FF08C0503037
:100E580031F05150E0E2EA930E944F0AF8CF10E0D7
:100E68000CCEAE81BF810E94BD0D0E94FD0DEF9694
:100E78006F960895FF92F82E26970E94F80D0E940B
:100E8800950A309719F4EFEFFFEF23C0DE011696AD
:100E98000E94D70C8D010E94950AEE83FF83E0E043
:100EA800E887E987DE011A960E94D70C0E94BD0DDB
:100EB800FA93EA931A930A93EEE1F4E0FA93EA9329
:100EC800DE011A96BDDD9F01AE81BF81E0E0EC93A3
:100ED800F9010E94FF0D2A96FF900895BA93AA93EC
:100EE800E991F99130971AF4E095F09531960895C3
:100EF8000E94DE09E0E0EA83EFE3EB831A930A93AA
:100F0800EB85FC85EF3FAFEFFA0739F40E949C0AA6
:100F1800A6E8B0E00E94A908ADC0EF3FAFE7FA0726
:100F280039F40E949C0AA7E8B0E00E94A908A2C070
:100F3800AC85AA2362F4E985FA856B857C850E94D5
:100F48002E0B0E94A10A0E94A60AEDE2EC93A88546
:100F5800A73010F0E6E0E8871885E12F1150E0305F
:100F680039F00E94AD0A0E941C0A0E94B20AF5CF0D
:100F78000E94B70A0E94D40B0E94A10A10E0E0E088
:100F8800F0E060E87FE30E94B20A0E94B70A0E947C
:100F9800B70C88F00E94AD0A0E94090A0E94B20AA2
:100FA8001F5F173238F00E949C0AABE8B0E00E943D
:100FB800A90860C0EACF103029F40E94A60AE0E32D
:100FC800EC932BC0E12F1150E03039F10E94AD0AAB
:100FD8000E941C0A0E94150ADF01CB010E94000929
:100FE8000E94B20A0E94B70A0E94720C0E94610B0A
:100FF8000E2F0E94A60A0E942A0AF0E00E94AD0A5B
:101008000E940E0D0E949A0B0E94240C0E94C00A96
:101018000E942F0A0E94A10AD5CFE885E03031F15D
:101028000E94A60AEEE2EC93E885E150E887EF5FBC
:10103800E9F00E94C00A0E94090A0E94A10AE985F3
:10104800FA856B857C850E94610B0E2F0E94A60A8B
:101058000E942A0AF0E00E94C00A0E940E0D0E9417
:101068009A0B0E942F0A0E94A10ADECFAE81BF818F
:10107800E0E0EC93198108812D960895AA93E8B3CE
:10108800EF70AE2FE881E07FEA2BE8BB8DE08A9510
:10109800F1F7C29A8DE08A95F1F7C2988DE08A95AA
:1010A800F1F751C0AA93A881E9DFE881E295E883C6
:1010B800A881E4DF85E88A95F1F745C0AA93E8811D
:1010C800F0E0EC55FD4FE081A981AE0FEBDF7980B0
:1010D800688022960895A2E00E94C50AACE0E2DF8B
:1010E800A1E00E94C50AE0E06E2E7E2E0895AA9324
:1010F800E7B3E06FE7BBBA9AB89AB99AC298C098B2
:10110800C1989880E881E058E093A602E881E0540D
:10111800E093A702A4E1B0E00E94240B0E94CB0A4E
:101128000E94CB0A0E94CB0AA0E2A8DF88EC90E0DC
:101138000197F1F7A8E2B6DFA4E0B4DFA5E8B2DFD3
:10114800A6E0B0DFC8DF21960895BA93AA93E99183
:10115800F991A991B991CD0105900D920020E1F77F
:10116800FC010895BA93AA93A991B991EE27FF2794
:101178006D91662311F03196FBCF0895BA93AA9327
:10118800AA27BB27E991F9910590002011F0119643
:10119800FBCFFD0108950E94E00D7B816A81F981F2
:1011A800E88177FB770F67FD7160972F9E5781F075
:1011B80078F0983190F4AA27BB2788270894879558
:1011C800B795A7959A95D1F7EA23FB23682305C01D
:1011D800E8947727EE27FF2766276F77769508F438
:1011E800606877F9A991B99189919991EA17FB07F4
:1011F8006807790797FB08950E94E00DA8D00E9420
:10120800CF086AD011F46BD008C0EEF768D0A0E020
:10121800B0E080E89FE30E94CD0B249608950E94D9
:10122800D80AACEE0E940C0BA9810C940C0B0E94FE
:10123800D80AADEE0C940C0BA1E00E94F10AEA83E7
:10124800A1E00E94F10AE98308950E94D10DE4E02B
:101258000E94F70CEF7FFF7F6F7070700895A09168
:101268006002B091610280916202909163020895D8
:10127800E8E0F0E060E070E00E94750D0895E2E0BB
:10128800F0E060E070E008950E940E0D0E94380DB5
:10129800DF01CB010895E0E0F8E060E070E00E9433
:1012A800750D0895EC83FD836E837F830895E0E1D7
:1012B800F0E060E070E00E94750D0895DF01CB0159
:1012C8000E94380DDF01CB010895E0E0F0E160E015
:1012D80070E00E94750D08950E94D60D08950E9431
:1012E800CC0D0895AC81BD818E819F810E94DB0C5D
:1012F8000895E887F9876A877B870895A885B9855F
:101308008A859B850895E4E0F0E060E070E00E9443
:10131800750D08950E940E0DF1DF0E94380D089595
:10132800AC81BD818E819F8108950E94380DDF01B7
:10133800CB010895E0E0F0E260E070E008950E94DB
:10134800750DD7DFE885F9856A857B8508950E9444
:10135800D10D0895FCDFE8E0F0E060E070E00E9465
:10136800500D08959FDFEC81FD816E817F81089586
:10137800A0919402B0919502809196029091970263
:10138800E4E6F0E060E070E008950E94DB0DA091D3
:101398009802B091990280919A0290919B02E4E69A
:1013A800F0E060E070E00895ED91FD913196FE93D4
:1013B800EE930895BA93AA932497E0E0E883E9832B
:1013C8000895AEDFE0E0F0E060E271E40E94240CF2
:1013D80069CFEC81FD816E817F81AC85BD858E856D
:1013E8009F850E94B70C0895AC85BD858E859F8525
:1013F8000895EDECFCEC6CEC7DE30E94240CEC878A
:10140800FD876E877F873F5F0895E0E0F0E060E248
:1014180071E40E94240C0895EC87FD876E877F870E
:101428000895A0E0B0E080E09FE30E94D40B089507
:10143800EDECFCEC6CEC7DE30E94240C0895A8858F
:10144800B9851196A887B98711970895E02FE05DAF
:10145800EC93E02F08950E94E50D0E94CD0B0895AE
:10146800E885F9853196E887F98708952A93AF8149
:10147800B885E985FA8509950895FE01E65AFF4F72
:101488000190F081E02D08953497DE01A65ABF4FF0
:10149800ED93FC930895AF81B885E985FA850995A0
:1014A8000895DE01A65ABF4F0D90BC91A02D089556
:1014B800EA87FB876C877D870895DFDFE5CFEA85BC
:1014C800FB856C857D850895EE87FF87AE85BF8592
:1014D8000E94B6081E2F0895E4DF14960E94BD0DE1
:1014E8000895E88BF98B6A8B7B8B08950B7FED89C8
:1014F800EA93DE01A95ABF4F0D90BC91A02DFE01C1
:10150800E75AFF4F0190F081E02D0995503008957A
:10151800E889F9896A897B89AA85BB858C859D8537
:101528000895DE011C960E94D70C0E94BD0D0895F7
:10153800EE81FF81FA93EA930895E987FA876B872A
:101548007C870895AE81BF811196AE83BF831197C2
:101558000895AA81BB818C819D810895EA83FB83CC
:101568006C837D830895EA81FB816C817D81A985E7
:10157800BA858B859C850895A985BA858B859C85B8
:1015880008950E945608A3E0B0E00C94240BA0E351
:101598000E94420888EC90E00197F1F70895A89816
:1015A800A998A09AA19815C0A198A098EE27000024
:1015B800999B0895989B089504D0A19A02D0A09A67
:1015C800E1E06DE007C0A19AA09A03D0A098F9DFE6
:1015D800A1986BE16A95F1F7089578E0A098F1DF9A
:1015E800989BFECFEEDF889499990894A09AF1DF32
:1015F800EE1F7A9599F77A2F772311F4A19801C0F5
:10160800A19ADFDFA098E5DFA09ADBDFA198D9CF08
:1016180078E0AA0F10F4A19801C0A19ADADFA09887
:10162800D0DF989BFECFCDDFA09A7A9591F7A1984D
:10163800C8DFA098CEDFE1E09999EE27A09AC1CF44
:10164800109639F0A89580ED97E00197F1F711977A
:10165800C9F7089530976040704009F070580895B0
:10166800552342F4503811F4E0FF04C03196691F45
:10167800791F6BF050E8572711F45F93CFC05F3F95
:1016880031F0660F000C57956795752F08955F9395
:1016980000200AF0CFC0C8C050E8192E1522880FC4
:1016A800991F9527550F879550E8072E0522660F35
:1016B800771F7527550F67950895689401C0E894BA
:1016C8005F93F2DF703818F07F3F08F4A7C056E147
:1016D800571BAAF4519558300EF4593030F0EFEFFB
:1016E800FFEF6FEF7FE777F91AC077275523B9F037
:1016F800EE0FFF1F661F771F5A95D1F710C0772787
:10170800583028F0EF2FF62F672F5850F9CF552370
:1017180031F076956795F795E7955A95D1F70020BA
:101728000AF459D15F910895689401C0E8943097FC
:1017380060407040B1F0002426F0772312F4009442
:101748004AD1172E7EE1112032F07A95EE0FFF1F55
:10175800661F111CF9CFEF2FF62F612D5F938ADFDB
:101768005F9108954F93AF01FD01DA01AB01BC0110
:10177800CA01402D012C142E4F910895EA0FFB1F2A
:10178800681F0895E095F0956095EF5FFF4F6F4FE4
:1017980008955F9381DF903871F150E8152604C0F1
:1017A8005F937ADF903839F1703821F1572F591B40
:1017B8002BF112F4D7DFFACF583118F0AA27BB273C
:1017C8008827583028F0AB2FB82F88275850F9CFE2
:1017D800552329F08695B795A7955A95D9F7502D91
:1017E800512572F0CBDF38F46795F795E795739537
:1017F80013F420C0B7DF3EDF5F910895D8F7FBCF21
:10180800EA1BFB0B680B51F010F40094BBDF662356
:1018180092F3EE0FFF1F661F7A95CBF7EE27FF278F
:10182800662777275F910895EFEFFFEF6FE77FEF68
:101838005F910895EFEFFFEF6FE77FE75F910895FE
:101848005F932ADF703851F3903841F301240894EC
:10185800791F23F41CF300203AF3ECCF0F921F9367
:101868002F933F934F93112722279927689FA00111
:101878008F9F302D410D591F6B9F300D411D591FF2
:101888008E9F27D0BF9F25D06A9F23D0BE9F1DD093
:10189800AF9F1BD0AE9F110D291F391F491F591F1C
:1018A800E32FF42F652F522F4F913F912F911F91C6
:1018B8000F9066232AF0550FEE1FFF1F661F02C008
:1018C80073954BF2CDDE5F910895100D211D391FE0
:1018D80002C0200D311D491F591F08955F93DCDE9A
:1018E800703821F411200AF49FCFA4CF903809F45E
:1018F80095CF01240894970B1BF4D4F30020F3CF61
:10190800792F1F932F933F934F9311241127222749
:1019180033274427552790E2AE17BF0786074107AC
:1019280030F0AE1BBF0B860B410B089401C08894A6
:10193800551F221F331F111CAA1FBB1F881F441FBE
:101948009A9551F7F901612D4F913F912F911F9170
:10195800662332F0550FEE1FFF1F661F7A9543F27C
:101968007FDE5F91089599239AF0772342F09717C5
:1019780048F029F4AE17BF07860720F031F0989495
:1019880088940895989408940895189488940895CC
:101998007723C2F7971798F3A9F7EA17FB076807A1
:1019A80088F399F3ECCF0024AF0DB01D0895EA0F2A
:1019B800FB1F681F791F0895AE0FBF1F861F971F53
:1019C8000895EA1BFB0B680B790B0895AE1BBF0B40
:1019D800860B970B0895F09560957095E195FF4FEC
:1019E8006F4F7F4F0895EE230E2EFD01BC0131F09D
:1019F80076956795F795E7950A94D1F70895EE0FD0
:101A0800FF1F661F771F0895FE2FFF0FFF0B6F2F15
:101A18007F2F08956F2F660F660B762F08958B2FF3
:101A2800880F880B982F08957A9F702D6B9F700DE3
:101A3800F89F700DE99F700D6A9F602D710DFB9FD7
:101A4800600D711DE89F600D711D8827FA9FF02DAC
:101A5800610D781FEB9FF00D611D781FEA9FE02D47
:101A6800F10D681F781F089571D0DEDF0EF4B3DF23
:101A78000895002498E0AA0F001C0E1A10F40E0E08
:101A880001C0A1609A95B9F7EA2FA02D089552D008
:101A9800F0DF0EF4E19508953F934F935F93002490
:101AA80011244427552730E2AA0FBB1F881F991F0E
:101AB800001C111C441F551F0E1A1F0A460B570BFA
:101AC80028F40E0E1F1E461F571F01C0A1603A952D
:101AD80059F7FD01BC01D001CA015F914F913F91B7
:101AE800089534D0D9DF0EF476DF0895E894A7FF7F
:101AF80002C0A1956894E7FDE195BBDFEA2F0EF4DB
:101B0800E1950895C9DFFD01BC010895E89497FFA8
:101B180009C0A095B09580959095AF5FBF4F8F4F46
:101B28009F4F689477FD57DFB7DFFD01BC010EF4C6
:101B380052DF0895E894E7FF02C0E1956894A7FF93
:101B480004C0A19500F8039400FA0895E89477FF7B
:101B580002C041DF689497FF0BC00024A095B095A0
:101B6800809590951196801D901D00F8039400FAB9
:101B78000895ED91FC9111970895ED91FD916D9166
:101B88007C9113970895ED93FD936D937C9308953D
:101B9800E881F9816A817B810895A881B9818A8168
:101BA8009B810895E883F9836A837B8308957A93F8
:101BB8006A93FA93EA9308959A938A93BA93AA93A5
:101BC8000895182E862F612D192E972F712D1B2EF3
:101BD800BF2FF12D1A2EAE2FE12D089530976040BA
:101BE800704008955A934A933A932A931A930A9302
:101BF80008955D814C813B812A811981088108956E
:00000001FF
