:020000000C945E
:1000020041000C9400000C9400000C9400000C942D
:1000120000000C9400000C9400000C9400000C945E
:1000220000000C9400000C9400000C9400000C944E
:1000320000000C9400000C9400000C9400000C943E
:1000420000000C9400000C9400000C9400000C942E
:1000520000001027E80364000A00010000100001FC
:100062001000010043004453313842323020262030
:1000720055534152540080C00200700278000000C3
:10008200F894EE27ECBBF1E0F5BFE5BF8DE0A2E00E
:10009200BB27ED938A95E9F780E098E0A0E6ED931F
:1000A2000197E9F7EAE7F0E085919591009761F011
:1000B200A591B59105901590BF01F00105900D92A3
:1000C2000197E1F7FB01F0CFEFE5EDBFE8E0EEBF0E
:1000D200C0E6D2E00C946D00E0E0EABBEBBBE7BB0C
:1000E200E8BBE4BBE5BBE1BBE2BBEBB9E0E1EAB9EB
:1000F200E6E8E0BDE0E0E0BDE3E3E9B9A0E191D0EC
:100102004DD0E0E6F2E0FA93EA93A0E1B0E00E947B
:10011200440144D0E0E0EA93A0E033D0A0E6B2E0AC
:100122005ED0E7E0EA93A0E02CD0A6E6B0E066D08D
:10013200E0E0EA93A1E025D0A8E6B0E05FD0E1CF0D
:10014200FFCFAA93E5B3EF70AE2FE881E07FEA2BF1
:10015200E5BB8DE08A95F1F7AA9A8DE08A95F1F7D1
:10016200AA988DE08A95F1F788C0AA93A881E9DF61
:10017200E881E295E883A881E4DF85E88A95F1F7D2
:100182007CC0AA93E881F0E0E059FD4FE081A981AB
:10019200AE0FEBDF5980488022960895A2E00E94BC
:1001A2007301ACE0E2DFA1E00E947301E0E04E2EB9
:1001B2005E2E0895AA93A881AA3011F0571448F030
:1001C200E0E0EA934394A42DDCDFA881AA3009F48D
:1001D20054C05394A89AA881C8DFA8984EC0BA9375
:1001E200AA931A93A981BA81ED91A983BA831E2F8A
:1001F200E03019F0A12FDEDFF5CF10C0BA93AA9339
:100202001A93E981FA813196E983FA833197E4916D
:100212001E2FE03019F0A12FCDDFF3CF18812396E6
:100222000895AA93E4B3E06FE4BBA29AA09AA19ABC
:10023200AA98A898A9987880E881E058E093720279
:10024200E881E054E0937302A4E1B0E00E948101EE
:100252000E9479010E9479010E947901A0E271DF76
:1002620088EC90E00197F1F7A8E27FDFA4E07DDF60
:10027200A5E87BDFA6E079DF91DF219608955F9BF9
:10028200FECFECB10895BA93AA930E948B010E811E
:100292001F8128853985002E012AD9F0F0DF5E2FD3
:1002A200583051F4AE81BF810A171B0720F4215048
:1002B20030400F5F1F4FF2CF5A3059F03F932F93C8
:1002C2002F5F3F4FE52FAF91BF91EC93015010404C
:1002D200E2CFD901E0E0EC93E885F9850E94920132
:1002E2002A9608950E94B600A3E0B0E00C94810122
:1002F200A0E30E94A20088EC90E00197F1F7089534
:10030200109639F0A89580ED97E00197F1F71197D3
:10031200C9F708955A934A933A932A931A930A93E0
:1003220008955D814C813B812A811981088108955C
:00000001FF
