:040000000C943B0021
:100004000C9400000C9400000C9400000C9400006C
:100014000C9400000C9400000C9400000C9400005C
:100024000C9400000C9400000C9400000C9400004C
:100034000C9400000C9400000C9400000C9400003C
:100044000C9400000C9400000C947B010C940000B0
:1000540000000102030405060708090A070001005D
:10006400020054000A0063025600010062026000AC
:100074000000F894EE27ECBBF1E0FBBFEBBFE5BF5B
:100084008DE0A2E0BB27ED938A95E9F780E098E044
:10009400A0E6ED930197E9F7E2E6F0E0859195910A
:1000A400009761F0A591B59105901590BF01F001FD
:1000B40005900D920197E1F7FB01F0CFEFE5EDBF5D
:1000C400E8E0EEBFC0E6D2E00C9468000E94E702CC
:1000D400A4E6B0E07AD0EFEFE1BB0E94E002E3E6F1
:1000E400F2E0FA93EA93AAE01ED0A4E6B0E00E94FC
:1000F40038030E94E002EDE6F2E0FA93EA93AAE004
:1001040046D05524EAE05E1660F4E52DF0E0E359AC
:10011400FD4FE081E2BBA4EFB1E00E9438035394A9
:10012400F1CFFFCFFFCFAA931A93EE81E05BEE836A
:10013400EC81FD81E070EF2FF0E0E0937702EC8139
:10014400E093780210E0E9811E1778F4E12FF0E0E3
:10015400E758FD4F0F01AA81BB81EE27A10FBE1FF7
:10016400EC91D001EC931F5FEECFEE81EA93E7E7C9
:10017400F2E0FA93EA93EC81EE5FEA93E0E0F0E0D8
:10018400FA93EA93A0E04AD0188127960895AA9397
:10019400ED81E05BED83EB81FC81E070EF2FF0E01B
:1001A400E0937702EB81E0937802ED81EA93E7E74D
:1001B400F2E0FA93EA93E2E0EA93ED81FE81FA93A6
:1001C400EA93AE812BD026960895BA93AA931A93F4
:1001D400689421F8E7E0E0936202E0E0E093010331
:1001E400E0930203E0930303E0930403A99AA89A1B
:1001F400E6BFE1B1EC7FE1B9E981FA81A0EABFE0B1
:100204000E9447031E2F183008F0185010B9E6B7A3
:10021400E078E564E6BF188123960895AA932497AD
:1002240021FE64C0EA85EE0FE093F902E885F985C2
:10023400E093FA02F093FB02E0E0E0936002EF81C6
:10024400E093FC02ED81FE81E093FD02F093FE0257
:10025400E0E0E0936102EC81E093FF02E6E0E093EA
:1002640062027894EF81E03081F0E885F985309777
:1002740009F43CC0EC81E03021F0AD81BE811097DF
:1002840009F001C033C068940DC0EC81E03041F145
:10029400ED81FE81309751F1E091F902E160E09344
:1002A400F902E89420F8E89421F8E6B7EF70E06AE0
:1002B400E6BFE0E2F1EA67E070E00E945F0321FC40
:1002C4000FC00E945A033197604070400E945F0340
:1002D40031F4E5E0E0936202689421F807C0EFCFBF
:1002E400A0916202E0E00E94420301C0E0E02B968C
:1002F40008950A921A92FA926A937A938A939A9335
:10030400AA93BA93EA93FA93EFB7EA930E94640329
:1003140010916102009160023091FC02209162020E
:10032400E12FA091FD02B091FE02F0E0EA0FFB1F65
:10033400AF01E1B1E87FE83011F420E002C0E03120
:1003440019F4E091F90210C0E83111F0E83221F516
:10035400031780F4E02F0F5FA091FA02B091FB0223
:10036400F0E0AE0FBF1FEC91E3B9E6B7EF70E068C1
:10037400E6BF11C0E091FF021E1760F4E091F9029C
:10038400E160E093F902E89420F8E6B7EF70E06AE0
:10039400E6BFFBC033C0F9C0E03529F4E3B1DA01AC
:1003A400EC931F5F02C0E03471F4E091FF02E1506E
:1003B4001E1720F0E6B7EF70E06803C0E6B7EF70F1
:1003C400E06CE6BFE2C0E83529F4E3B1DA01EC936E
:1003D4001F5F02C0E03209F402C0E03309F402C036
:1003E400E83469F4203051F420FE03C0031728F0E8
:1003F40005C0E091FF021E1708F424E0C0C0E833F2
:1004040029F422E0E6B7EF70E068BCC0E83611F0EA
:10041400E83711F422E005C0E03611F0E03791F43A
:1004240020E010E0E89420F8E0910003E03029F4A3
:1004340021E0E6B7EF70E06803C0E6B7EF70E06C68
:10044400E6BFA3C0E03811F0E03929F520FE02C070
:1004540021E095C0E3B1DA01EC931F5FE091000362
:100464001E17B0F4E0910103F0910203309711F4E8
:1004740026E085C0A0E0E0910103F0910203099514
:10048400E03029F0E6B7EF70E06CE6BF7EC002C052
:10049400689420F802C0E83809F402C0E83929F465
:1004A400E6B7EF70E068E6BF70C0E03AA9F4E6B7DB
:1004B400EF70E06CE6BF689421F8E0910103F091DD
:1004C4000203309739F0A1E0E0910103F0910203B7
:1004D400099501C026E059C0E03B11F422E002C0B6
:1004E400E83AB9F4E0910303F0910403309759F02A
:1004F400A0E0E0910303F091040309953E2FE0305E
:1005040011F020E002C026E03AC000E0E89420F8B0
:1005140002C0E83BE1F420FE02C021E030C0E02F3D
:100524000F5FA091FA02B091FB02F0E0AE0FBF1F83
:10053400EC91E3B9031720F4E6B7EF70E06C05C063
:10054400689420F8E6B7EF70E068E6BF1EC0E03CB0
:1005540011F0E83C89F4E6B7EF70E06CE6BFE09197
:100564000303F0910403309731F0A1E0E091030319
:10057400F0910403099507C0E03039F423E0E6B7AD
:10058400EF70E06DE6BF689421F810936102009368
:100594006002209362023093FC020E946B03269651
:1005A400E991EFBFF991E991B991A9919991899153
:1005B40079916991F990199009901895E0E0EA937E
:1005C400E0E0F0E0FA93EA930895A898A998A09A35
:1005D400A19815C0A198A098EE270000999B0895B2
:1005E400989B089504D0A19A02D0A09AE1E06DE00E
:1005F40007C0A19AA09A03D0A098F9DFA1986BE153
:100604006A95F1F7089578E0A098F1DF989BFECF02
:10061400EEDF889499990894A09AF1DFEE1F7A95F9
:1006240099F77A2F772311F4A19801C0A19ADFDFFB
:10063400A098E5DFA09ADBDFA198D9CF78E0AA0FD4
:1006440010F4A19801C0A19ADADFA098D0DF989B9A
:10065400FECFCDDFA09A7A9591F7A198C8DFA09834
:10066400CEDFE1E09999EE27A09AC1CF109639F038
:10067400A89580ED97E00197F1F71197C9F70895D0
:10068400EA17E1E009F0EE2708950024112490E12F
:10069400AA0FBB1F001C111C0E1A1F0A18F40E0E01
:1006A4001F1E01C0A1609A9599F7FD01D00108951C
:1006B400E881F9816A817B810895E883F9836A83FB
:1006C4007B8308955A934A933A932A931A930A93ED
:1006D40008955D814C813B812A81198108810895A7
:00000001FF
