:080000000C9456000C94000062
:100008000C9400000C9400000C9400000C94000068
:100018000C9400000C9400000C9400000C94000058
:100028000C9400000C9400000C9400000C948F00B9
:100038000C9400000C9400000C9400000C94000038
:100048000C9400000C9411020C9400001027E80393
:1000580064000A0001000010000110000100000007
:100068001100000000004C61737420322063687531
:100078006E6B73206F6620726563696576656420B0
:10008800646174613A00070080C0010002006600E4
:10009800060004006800010062028E0002000803E6
:1000A80090000000F894EE27ECBBF1E0FBBFEBBF3B
:1000B800E5BF8DE0A2E0BB27ED938A95E9F780E0E4
:1000C80098E0A0E6ED930197E9F7E2E9F0E0859181
:1000D8009591009761F0A591B59105901590BF0194
:1000E800F00105900D920197E1F7FB01F0CFEFE5E4
:1000F800EDBFE8E0EEBFC0E6D2E00C94BA00E0E065
:10010800EBB9E0E9EAB9E6E8E0BDE0E0E0BDE3E349
:10011800E9B978940895AA93BA93EA93FA93EFB752
:10012800EA935CB0EAE0E51549F4E1E0E09379028E
:10013800E0E0E0937702E093780211C0A0917702A3
:10014800B0917802539758F4A7E7B2E0ED91FD918A
:100158003196FE93EE933197ED59FD4F5082E99118
:10016800EFBFF991E991B991A9911895A297C7DFC5
:10017800A0E10E94E603A4E6B0E0BCD0E0917902D9
:10018800E03009F44FC0229788829982E0E0EA9330
:10019800E981FA81FA93EA93E3E6F2E0FA93EA93C3
:1001A800A42D42D0F40171964F01A4E6B0E00E945C
:1001B8002204FE013296FA93EA93A2E287D06624DB
:1001C8007724E4E1F0E06E167F0650F4A3E6B2E08F
:1001D800A60DB71DE0E0EC93F30131963F01F1CF96
:1001E800E0E0EA93A0E00E949603AEE6B0E00E9449
:1001F800D303A8EEB3E00E9422040E94A303E0E028
:10020800EA93A0E00E949603DE0112960E94C403BE
:10021800E0E0E0937902A0EDB7E00E9422040E949A
:10022800A3032296ABCFFFCFAA931A93EE81E05B8C
:10023800EE83EC81FD81E070EF2FF0E0E0937A022D
:10024800EC81E0937B0210E0E9811E1778F4E12F3E
:10025800F0E0E458FD4F0F01AA81BB81EE27A10F02
:10026800BE1FEC91D001EC931F5FEECFEE81EA93B5
:10027800EAE7F2E0FA93EA93EC81EE5FEA93E0E0D2
:10028800F0E0FA93EA93A0E05DD0188127960895EC
:10029800AA93ED81E05BED83EB81FC81E070EF2FA9
:1002A800F0E0E0937A02EB81E0937B02ED81EA9340
:1002B800EAE7F2E0FA93EA93E2E0EA93ED81FE815D
:1002C800FA93EA93AE813ED026960895AA931A939C
:1002D8000A93F40171978F01E0E0EA931A930A9365
:1002E800EE81FF81FA93EA93AF81D2DF1981088109
:1002F80025960895BA93AA931A93689421F8E7E08B
:10030800E0936202E0E0E0930403E0930503E093E6
:100318000603E0930703A99AA89AE6BFE1B1EC7F28
:10032800E1B9E981FA81A0EABFE00E9431041E2FF9
:10033800183008F0185010B9E6B7E078E564E6BF61
:100348000C94E303AA93249721FE64C0EA85EE0F78
:10035800E093FC02E885F985E093FD02F093FE0244
:10036800E0E0E0936002EF81E093FF02ED81FE811F
:10037800E0930003F0930103E0E0E0936102EC8175
:10038800E0930203E6E0E09362027894EF81E030C4
:1003980081F0E885F985309709F43CC0EC81E030BC
:1003A80021F0AD81BE81109709F001C033C0689477
:1003B8000DC0EC81E03041F1ED81FE81309751F1C3
:1003C800E091FC02E160E093FC02E89420F8E894F4
:1003D80021F8E6B7EF70E06AE6BFE0E2F1EA67E02D
:1003E80070E00E94490421FC0FC00E944404319728
:1003F800604070400E94490431F4E5E0E0936202F5
:10040800689421F807C0EFCFA0916202E0E00E9453
:100418002C0401C0E0E02B9608950A921A92FA92F1
:100428006A937A938A939A93AA93BA93EA93FA93DC
:10043800EFB7EA930E944E041091610200916002A6
:100448003091FF0220916202E12FA0910003B09148
:100458000103F0E0EA0FFB1FAF01E1B1E87FE830EC
:1004680011F420E002C0E03119F4E091FC0210C060
:10047800E83111F0E83221F5031780F4E02F0F5F1F
:10048800A091FD02B091FE02F0E0AE0FBF1FEC910B
:10049800E3B9E6B7EF70E068E6BF11C0E091020388
:1004A8001E1760F4E091FC02E160E093FC02E8941E
:1004B80020F8E6B7EF70E06AE6BFFBC033C0F9C0CA
:1004C800E03529F4E3B1DA01EC931F5F02C0E034B0
:1004D80071F4E0910203E1501E1720F0E6B7EF70C7
:1004E800E06803C0E6B7EF70E06CE6BFE2C0E8354D
:1004F80029F4E3B1DA01EC931F5F02C0E03209F49A
:1005080002C0E03309F402C0E83469F4203051F441
:1005180020FE03C0031728F005C0E09102031E1750
:1005280008F424E0C0C0E83329F422E0E6B7EF700D
:10053800E068BCC0E83611F0E83711F422E005C0E5
:10054800E03611F0E03791F420E010E0E89420F86C
:10055800E0910303E03029F421E0E6B7EF70E068AA
:1005680003C0E6B7EF70E06CE6BFA3C0E03811F057
:10057800E03929F520FE02C021E095C0E3B1DA0197
:10058800EC931F5FE09103031E17B0F4E09104039E
:10059800F0910503309711F426E085C0A0E0E091C2
:1005A8000403F09105030995E03029F0E6B7EF70F0
:1005B800E06CE6BF7EC002C0689420F802C0E8384C
:1005C80009F402C0E83929F4E6B7EF70E068E6BF3D
:1005D80070C0E03AA9F4E6B7EF70E06CE6BF689443
:1005E80021F8E0910403F0910503309739F0A1E078
:1005F800E0910403F0910503099501C026E059C074
:10060800E03B11F422E002C0E83AB9F4E0910603B5
:10061800F0910703309759F0A0E0E0910603F091BC
:10062800070309953E2FE03011F020E002C026E0D4
:100638003AC000E0E89420F802C0E83BE1F420FE6C
:1006480002C021E030C0E02F0F5FA091FD02B09101
:10065800FE02F0E0AE0FBF1FEC91E3B9031720F4E0
:10066800E6B7EF70E06C05C0689420F8E6B7EF7065
:10067800E068E6BF1EC0E03C11F0E83C89F4E6B74C
:10068800EF70E06CE6BFE0910603F0910703309746
:1006980031F0A1E0E0910603F0910703099507C046
:1006A800E03039F423E0E6B7EF70E06DE6BF689418
:1006B80021F8109361020093600220936202309344
:1006C800FF020E9455042696E991EFBFF991E9913E
:1006D800B991A9919991899179916991F990199014
:1006E80009901895AA93E8B3EF70AE2FE881E07FE0
:1006F800EA2BE8BB8DE08A95F1F7C29A8DE08A95DE
:10070800F1F7C2988DE08A95F1F788C0AA93A8817D
:10071800E9DFE881E295E883A881E4DF85E88A9546
:10072800F1F77CC0AA93E881F0E0E85FFC4FE08134
:10073800A981AE0FEBDFB980A88022960895A2E0C8
:100748000E941404ACE0E2DFA1E00E941404E0E09F
:10075800AE2EBE2E0895AA93A881AA3011F0BD141A
:1007680048F0E0E0EA93A394AA2DDCDFA881AA3040
:1007780009F454C0B394C09AA881C8DFC0984EC089
:10078800BA93AA931A93A981BA81ED91A983BA83DE
:100798001E2FE03019F0A12FDEDFF5CF10C0BA937D
:1007A800AA931A93E981FA813196E983FA833197FA
:1007B800E4911E2FE03019F0A12FCDDFF3CF18817F
:1007C80023960895AA93E7B3E06FE7BBBA9AB89A5D
:1007D800B99AC298C098C198D880E881E058E09347
:1007E8000A03E881E054E0930B03A4E1B0E00E941F
:1007F80022040E941A040E941A040E941A04A0E209
:1008080071DF88EC90E00197F1F7A8E27FDFA4E0C0
:100818007DDFA5E87BDFA6E079DF91DF21960895EB
:100828000E948A03A3E0B0E00C942204A0E30E9493
:10083800760388EC90E00197F1F70895109639F067
:10084800A89580ED97E00197F1F71197C9F70895FA
:10085800EA17E1E009F0EE2708950024112490E159
:10086800AA0FBB1F001C111C0E1A1F0A18F40E0E2B
:100878001F1E01C0A1609A9599F7FD01D001089546
:10088800E881F9816A817B810895E883F9836A8325
:100898007B8308955A934A933A932A931A930A9317
:1008A80008955D814C813B812A81198108810895D1
:00000001FF
