:0A0000000C9438000C9400000C94DE
:10000A0000000C9400000C9400000C9400000C9466
:10001A0000000C9400000C9400000C9400000C9456
:10002A0000000C9400000C9400000C9400000C9446
:10003A0000000C9400000C9400000C9400000C9436
:10004A0000000C9400000C9400001027E8036400E0
:10005A000A00010000100001100001000000020067
:10006A00060066000000F894EE27ECBBF1E0F5BF4D
:10007A00E5BF8DE0A2E0BB27ED938A95E9F780E022
:10008A0098E0A0E6ED930197E9F7E8E6F0E08591BC
:10009A009591009761F0A591B59105901590BF01D2
:1000AA00F00105900D920197E1F7FB01F0CFEFE522
:1000BA00EDBFE8E0EEBFC0E6D2E00C94B900E0E0A4
:1000CA00EBB9EAB1E861EAB9E0B5E668E0BDE3E3B5
:1000DA00E9B9E0E0E0BD08955F9BFECFECB1089579
:1000EA00AA93A881A13610F0AA3708F003C0E881C4
:1000FA00E052E8835D9BFECFEBE5ECB95D9BFECF5A
:10010A00E881ECB95D9BFECFEDE5ECB92196089547
:10011A00BA93AA931A9310E05D9BFECFEBE5ECB974
:10012A000E94E500EC91E030C1F00E94E500AC913C
:10013A00A13628F00E94E500AC91AA3708F005C064
:10014A000E94E500EC91E052EC935D9BFECF0E9489
:10015A00E500EC91ECB91F5FE3CF5D9BFECFEDE5C7
:10016A00ECB9188123960895AADFB6DF5E2EEAE27B
:10017A00E515F1F4E3E2E51551F01ED05E2EF30128
:10018A0031963F013197E05AFD4F5082F3CFF30188
:10019A0031973F01E05AFD4FA0E0A083A0E6B2E00C
:1001AA00B7DFA0E9B1E00E94EB006624772402C021
:1001BA00A52D96DFDACFFFCF5F9BFECFECB1089576
:1001CA00A981BA81EE27A10FBE1F0895109639F0B2
:1001DA00A89580ED97E00197F1F71197C9F708956F
:00000001FF
