:080000000C942A000C9400008E
:100008000C9400000C9400000C9400000C94000068
:100018000C9400000C9400000C9400000C94440014
:100028000C9400000C9400000C9400000C94000048
:100038000C9400000C9400000C9400000C94000038
:100048000C9400000C9400000C940000F894EE2727
:10005800ECBBF1E0F5BFE5BF8DE0A2E0BB27ED9377
:100068008A95E9F780E098E0A0E6ED930197E9F733
:10007800EFE5EDBFE8E0EEBFC0E6D2E00C94CF00BC
:10008800AA93EA93FA93EFB7EA93E5B3A1E0EA27D4
:10009800E5BBA5D0E991EFBFF991E991A991189530
:1000A800BA93AA936097EA89FB89AC89BD898E893E
:1000B8009F890E9429020E9460010E94DC010E941F
:1000C8002701EC87FD876E877F870E946001A0E08B
:1000D800B0E08AE794E40E94DC01E887F9876A8740
:1000E8007B87A885B9858A859B85E0E0FFEF6FE768
:1000F80077E40E948E01EC83FD836E837F83E8851D
:10010800F9856A857B85A889B9890E942E020E9493
:100118009C020E94DC010E9427010E9490020E941A
:100128008B02A030E0E0BE07E1E08E07E0E09E072A
:10013800FCF0EFEFFFEF60E070E00E946B02A0912F
:100148006002B0916102EA0FFB1FE0936002F09336
:100158006102A881B981EFEFFFEF0E947002A0E071
:10016800B0E0AE1BBF0BA0936202B09363020AC05B
:10017800A881B981EFEFFFEFEA1BFB0BE093620266
:10018800F0936302EEB5E460EEBD29D0E9B7E46010
:10019800E9BF689608952497E0E0E883E4E2E983FC
:1001A800E4EFEA83EAE4EB8300E011E028EE33E0D1
:1001B800A09A0E9486020E9495021A930A93D90176
:1001C8006FDFE0E0EABBEBBBE7BBE8BBE1E0E4BB29
:1001D800E0E0E5BBE1BBE2BB7894FFCFFFCFE09165
:1001E8006202F0916302FDBDECBD0895552342F40F
:1001F800503811F4E0FF04C03196691F791F6BF085
:1002080050E8572711F45F9373C05F3F31F0660FD2
:10021800000C57956795752F08955F9300200AF095
:1002280073C06CC050E8192E1522880F991F9527A6
:10023800550F879550E8072E0522660F771F7527FB
:10024800550F67950895689401C0E8945F93F2DFAD
:10025800703818F07F3F08F44BC056E1571BAAF4DA
:10026800519558300EF4593030F0EFEFFFEF6FEF43
:100278007FE777F91AC077275523B9F0EE0FFF1FEC
:10028800661F771F5A95D1F710C07727583028F086
:10029800EF2FF62F672F5850F9CF552331F0769569
:1002A8006795F795E7955A95D1F700200AF4C5D0D8
:1002B8005F910895689401C0E89430976040704059
:1002C800B1F0002426F0772312F40094B6D0172E4C
:1002D8007EE1112032F07A95EE0FFF1F661F111C88
:1002E800F9CFEF2FF62F612D5F938ADF5F91089585
:1002F800EE27FF27662777275F910895EFEFFFEF37
:100308006FE77FEF5F910895EFEFFFEF6FE77FE70C
:100318005F9108955F9386DF703851F3903841F309
:1003280001240894791F23F41CF300203AF3ECCF3E
:100338000F921F932F933F934F93112722279927AB
:10034800689FA0018F9F302D410D591F6B9F300D65
:10035800411D591F8E9F27D0BF9F25D06A9F23D04C
:10036800BE9F1DD0AF9F1BD0AE9F110D291F391FF7
:10037800491F591FE32FF42F652F522F4F913F919B
:100388002F911F910F9066232AF0550FEE1FFF1F24
:10039800661F02C073954BF229DF5F910895100D17
:1003A800211D391F02C0200D311D491F591F0895F5
:1003B8005F9338DF703821F411200AF49FCFA4CF5F
:1003C800903809F495CF01240894970B1BF4D4F3C3
:1003D8000020F3CF792F1F932F933F934F9311242E
:1003E8001127222733274427552790E2AE17BF0746
:1003F8008607410730F0AE1BBF0B860B410B0894F4
:1004080001C08894551F221F331F111CAA1FBB1F30
:10041800881F441F9A9551F7F901612D4F913F911B
:100428002F911F91662332F0550FEE1FFF1F661F95
:100438007A9543F2DBDE5F910895F09560957095AB
:10044800E195FF4F6F4F7F4F08956F2F660F660B33
:10045800762F08958B2F880F880B982F08950024E6
:10046800112490E1AA0FBB1F001C111C0E1A1F0AB1
:1004780018F40E0E1F1E01C0A1609A9599F7FD0190
:10048800D00108953F934F935F930024112444278C
:10049800552730E2AA0FBB1F881F991F001C111C8B
:1004A800441F551F0E1A1F0A460B570B28F40E0E31
:1004B8001F1E461F571F01C0A1603A9559F7FD013D
:1004C800BC01D001CA015F914F913F91089507D0B7
:1004D800D9DF0EF4B2DF0895C2DFFD010895E89474
:1004E80077FF02C0AADF689497FF0BC00024A0958D
:1004F800B095809590951196801D901D00F80394F5
:1005080000FA0895E881F9816A817B810895A881BC
:10051800B9818A819B810895E883F9836A837B8303
:1005280008957A936A93FA93EA930895689401C0B8
:10053800E89401D0C2DE182E862F612D192E972F30
:10054800712D1B2EBF2FF12D1A2EAE2FE12D0895E0
:00000001FF
