:0E0000000C9443000C9400000C9400000C942F
:10000E0000000C9400000C9400000C9400000C9462
:10001E0000000C9400000C9400000C9400000C9452
:10002E0000000C9400000C9400000C9400000C9442
:10003E0000000C9400000C9400000C9400000C9432
:10004E0000000C9400001027E80364000A00010071
:10005E000010000110000100000000004563686FF1
:10006E0020746573743A090080C0040006006600AF
:10007E000200740276000000F894EE27ECBBF1E06B
:10008E00F5BFE5BF8DE0A2E0BB27ED938A95E9F7BA
:10009E0080E098E0A0E6ED930197E9F7E8E7F0E05D
:1000AE0085919591009761F0A591B5910590159068
:1000BE00BF01F00105900D920197E1F7FB01F0CF22
:1000CE00EFE5EDBFE8E0EEBFC0E6D2E00C947A00BB
:1000DE00E0E0EBB9E0E9EAB9E6E8E0BDE0E0E0BD7A
:1000EE00E3E3E9B90895A0E1A5D0F2DFE0E0EA93F9
:1000FE00A0E050D0AAE6B0E08AD0662477245F9BB9
:10010E00FECF5CB0EDE5E51519F40E944F0103C07A
:10011E000E944F01F4CFE0E0EA93A1E03BD0A0E6CD
:10012E00B2E066D0A8E8B3E10E94650140D0882411
:10013E009924E4E1F0E08E169F0650F4A0E6B2E0BA
:10014E00A80DB91DE0E0EC93F40131964F01F1CF0B
:10015E00CDCFFFCFAA93E5B3EF70AE2FE881E07F4E
:10016E00EA2BE5BB8DE08A95F1F7AA9A8DE08A9588
:10017E00F1F7AA988DE08A95F1F788C0AA93A88125
:10018E00E9DFE881E295E883A881E4DF85E88A95D6
:10019E00F1F77CC0AA93E881F0E0EC58FD4FE081C6
:1001AE00A981AE0FEBDF4980B88022960895A2E0B8
:1001BE000E945701ACE0E2DFA1E00E945701E0E0AF
:1001CE00BE2E4E2E0895AA93A881AA3011F04A147D
:1001DE0048F0E0E0EA93B394AB2DDCDFA881AA30BF
:1001EE0009F454C04394A89AA881C8DFA8984EC0B9
:1001FE00BA93AA931A93A981BA81ED91A983BA836E
:10020E001E2FE03019F0A12FDEDFF5CF10C0BA930C
:10021E00AA931A93E981FA813196E983FA83319789
:10022E00E4911E2FE03019F0A12FCDDFF3CF18810E
:10023E0023960895AA93E4B3E06FE4BBA29AA09A22
:10024E00A19AAA98A898A998A880E881E058E09366
:10025E007602E881E054E0937702A4E1B0E00E94D8
:10026E0065010E945D010E945D010E945D01A0E298
:10027E0071DF88EC90E00197F1F7A8E27FDFA4E050
:10028E007DDFA5E87BDFA6E079DF91DF219608957B
:10029E00F30131963F013197E05AFD4F5082089598
:1002AE000E94C500A3E0B0E00C946501A0E30E949B
:1002BE00B10088EC90E00197F1F70895109639F0AF
:1002CE00A89580ED97E00197F1F71197C9F708957A
:00000001FF
