:080000000C9433000C94000085
:100008000C9400000C9400000C9400000C94000068
:100018000C9400000C9400000C9400000C94000058
:100028000C9400000C9400000C9400000C944D00FB
:100038000C9400000C9400000C9400000C94000038
:100048000C9400000C9400000C9400001027E803A6
:1000580064000A0001000010000110000100F8947B
:10006800EE27ECBBF1E0F5BFE5BF8DE0A2E0BB27D2
:10007800ED938A95E9F780E098E0A0E6ED93019783
:10008800E9F7EFE5EDBFE8E0EEBFC0E6D2E00C949B
:100098006A00EA93ECB1EBBBE99118950E9407015D
:1000A800E8E9EAB9E6E8E0BD0E947D00E150E9B977
:1000B8000E947D00E150F04060407040DF01CB01BC
:1000C800E8E00E949400E0BD24960895EFE0EABBC2
:1000D800E0E0EBBBE7BBEFE0E8BBA3E3B0E080E028
:1000E80090E0DCDF7894E6B3ECB95D9BFECFFBCF04
:1000F800FFCF0E940201A0E1B0E080E090E00E9402
:10010800C000A0E0B2E18AE790E00E94EA0008950A
:10011800F09560957095E195FF4F6F4F7F4F08956B
:10012800EE230E2EFD01BC0131F075956795F7950C
:10013800E7950A94D1F708957A9F702D6B9F700DFB
:10014800F89F700DE99F700D6A9F602D710DFB9FE0
:10015800600D711DE89F600D711D8827FA9FF02DB5
:10016800610D781FEB9FF00D611D781FEA9FE02D50
:10017800F10D681F781F08952ED0DEDF0EF4C8DF5A
:1001880008953F934F935F930024112444275527E4
:1001980030E2AA0FBB1F881F991F001C111C441FA7
:1001A800551F0E1A1F0A460B570B28F40E0E1F1E5A
:1001B800461F571F01C0A1603A9559F7FD01BC01C0
:1001C800D001CA015F914F913F91089504D0D9DFC2
:1001D8000EF49EDF0895E89477FF02C099DF6894D3
:1001E80097FF0BC00024A095B09580959095119627
:1001F800801D901D00F8039400FA0895E881F981A4
:100208006A817B8108959A938A93BA93AA930895F1
:00000001FF
