:020000000C945E
:1000020034000C9400000C9400000C9400000C943A
:1000120000000C9400000C9400000C9400000C945E
:1000220000000C9400000C9400000C9400000C944E
:1000320000000C9400000C9400000C9400000C943E
:1000420000000C9400000C9400000C9400000C942E
:10005200000048454C4C4F20574F524C44210C0055
:10006200600254000000F894EE27ECBBF1E0F5BF0B
:10007200E5BF8DE0A2E0BB27ED938A95E9F780E02A
:1000820098E0A0E6ED930197E9F7E0E6F0E08591CC
:100092009591009761F0A591B59105901590BF01DA
:1000A200F00105900D920197E1F7FB01F0CFEFE52A
:1000B200EDBFE8E0EEBFC0E6D2E00C946000E0E005
:1000C200EABBEBBBE7BBE8BBE4BBE5BBE1BBE2BB26
:1000D200E0E6E2B9EFE1E0B9E4E0E6BF0E949600B3
:1000E200A8EEB3E00E94E700E4EAE6BFE6B7E7FF66
:1000F200FDCFE4E6E3B9E4E8E6BFE6B7E7FFFDCF0C
:100102005524ECE05E1668F4E52DF0E0E05AFD4F70
:10011200E081E3B9E4E8E6BFE6B7E7FFFDCF539439
:10012200F0CFE4E9E6BFDCCFFFCFA898A998A09A68
:10013200A19815C0A198A098EE270000999B089558
:10014200989B089504D0A19A02D0A09AE1E06DE0B4
:1001520007C0A19AA09A03D0A098F9DFA1986BE1F9
:100162006A95F1F7089578E0A098F1DF989BFECFA9
:10017200EEDF889499990894A09AF1DFEE1F7A95A0
:1001820099F77A2F772311F4A19801C0A19ADFDFA2
:10019200A098E5DFA09ADBDFA198D9CF78E0AA0F7B
:1001A20010F4A19801C0A19ADADFA098D0DF989B41
:1001B200FECFCDDFA09A7A9591F7A198C8DFA098DB
:1001C200CEDFE1E09999EE27A09AC1CF109639F0DF
:1001D200A89580ED97E00197F1F71197C9F7089577
:00000001FF
