:080000000C9440000C94000078
:100008000C9400000C9400000C9400000C94000068
:100018000C9400000C9400000C9400000C94000058
:100028000C9400000C9400000C9400000C94000048
:100038000C9400000C9400000C9400000C94000038
:100048000C9400000C9400000C9400001027E803A6
:1000580064000A000100001000011000010047615F
:100068007320616D6F756E743D256400250080C036
:100078000200700276000000F894EE27ECBBF1E075
:10008800F5BFE5BF8DE0A2E0BB27ED938A95E9F7C0
:1000980080E098E0A0E6ED930197E9F7E8E7F0E063
:1000A80085919591009761F0A591B591059015906E
:1000B800BF01F00105900D920197E1F7FB01F0CF28
:1000C800EFE5EDBFE8E0EEBFC0E6D2E00C94B80083
:1000D800AA93E881E7B98BE18A95F1F7369A349BC0
:1000E800FECF349AE4B1F5B10C941603E0E0E7B919
:1000F800E5E8E6B9E0E0E0BF089524971A930A938B
:10010800A0E0E6DF662777270E94DB03EA83FB830C
:100118006C837D83AA81BB818C819D81E0E0F0E0C6
:1001280068EC72E40E940904DF01CB01E0E0F0EC26
:100138006FE774E40E9457040E94A4038F01E0E66D
:10014800F2E0FA93EA93E6E6F0E0FA93EA93F8012C
:100158000E94AC040E94B90484E00E9446022896DA
:100168001981088126960895A0E10E94EA02BEDF5F
:10017800C4DFE0E0EA93A0E00E949A02A0E6B2E0C1
:100188000E94C802A4E7B0E00E94D702A4EFB1E041
:100198000E946B030E94A702EBCFFFCFBA93AA93EA
:1001A8001A930A93AA81BB8112960E94B1043097D0
:1001B80059F1AA81BB8114960E94B1048F0130972E
:1001C80061F00230E0E01E0798F0F80131978F01E6
:1001D800AA81BB811496ED93FC93AA81BB811296E8
:1001E800ED91FD913196FE93EE933197AC81A0830A
:1001F800AA81BB810E94B104FF232AF0ED91FD91F1
:100208003196FE93EE9306C0AA81BB81EFEFFFEF14
:10021800ED93FC931981088125960895BA93AA93C2
:1002280026970E94BE0410E0AC85BD85E0E0F0E0B2
:10023800ED93FC93EA89FB893196EA8BFB8B319726
:10024800E4912E2FE03009F415C1E12FE03039F4A4
:10025800253211F411E002C00E9431030AC1E130D5
:10026800A9F4253219F40E94310302C112E040E0DA
:1002780000E02D3211F401E0FCC02B3211F44BE206
:10028800F8C0203211F440E2F4C002C0E23039F480
:1002980050E013E0203311F40068EBC003C0E330F2
:1002A80009F0E7C0203310F02A3308F007C0AAE0AD
:1002B8005A9F502DE22FE0535E0FDBC0E22FE3364A
:1002C80049F40E943803E889F989A481AA930E9415
:1002D8003E03CEC0E33741F40E9438030E94440332
:1002E8000E9418031E2F0AC0E03761F40E943803E9
:1002F8000E9444030E9424031E2F086002600F77A7
:1003080030E034C0E43611F0E93611F4046002C07C
:10031800E53731F4E4E5F0E0EE83FF8315E00CC047
:10032800E83511F4086003C0E83709F0A1C0EEE52C
:10033800F0E0EE83FF8314E002FF14C00E9438034C
:100348000E944E03AB85AA233AF4EA85FB850E94F6
:10035800A004EA87FB874DE2403011F01F5F01C01F
:100368000B7F04C00E9438030E944E0300FD11C099
:10037800151778F407FF08C002FF04C00B7F242F6D
:10038800115001C020E301C020E20E943103515006
:10039800EFCF312F01FF17C03030A1F003FF06C0A7
:1003A800EE81FF812591EE83FF8305C0AE81BF8179
:1003B8002D91AE83BF830E943103503009F0515014
:1003C8003150EACF4BC020E3EE81FF810E94B50493
:1003D800E887F987EE81FF813296EE83FF83E8850F
:1003E800F985AA85BB85AE17BF0750F02F5FA88592
:1003F800B985EA85FB85EA1BFB0BEA87FB87EFCF0C
:100408002A3328F003FF02C0295F01C0295D04FDDB
:100418001AC0213320F4A885B985119709F409C0B9
:10042800531710F000FF01C013C020E207FF0BC0F4
:1004380020E3006102FF07C00B7F4A930E943E033E
:10044800503009F051500E943103503009F051509A
:100458003150A885B985129708F0B5CF00FF08C0BC
:10046800503031F05150E0E2EA930E943E03F8CF59
:1004780010E0E0CEAC85BD850E94B1040E94C504A1
:1004880064960895FF92F82E26970E94C0040E9451
:100498005603309719F4EFEFFFEF23C0DE011696ED
:1004A8000E949C048D010E945603EE83FF83E0E0C6
:1004B800E887E987DE011A960E949C040E94B1042D
:1004C800FA93EA931A930A93E2EDF0E0FA93EA9327
:1004D800DE011A96A3DE9F01AE81BF81E0E0EC93B6
:1004E800F9010E94C7042A96FF900895AA93E5B3DC
:1004F800EF70AE2FE881E07FEA2BE5BB8DE08A95AF
:10050800F1F7AA9A8DE08A95F1F7AA988DE08A9575
:10051800F1F788C0AA93A881E9DFE881E295E8832A
:10052800A881E4DF85E88A95F1F77CC0AA93E88181
:10053800F0E0E059FD4FE081A981AE0FEBDF598073
:10054800488022960895A2E00E945D03ACE0E2DFB5
:10055800A1E00E945D03E0E04E2E5E2E0895AA936E
:10056800A881AA3011F0571448F0E0E0EA934394C8
:10057800A42DDCDFA881AA3009F454C05394A89AAA
:10058800A881C8DFA8984EC0BA93AA931A93A981E4
:10059800BA81ED91A983BA831E2FE03019F0A12FFB
:1005A800DEDFF5CF10C0BA93AA931A93E981FA81D6
:1005B8003196E983FA833197E4911E2FE03019F0E0
:1005C800A12FCDDFF3CF188123960895AA93E4B322
:1005D800E06FE4BBA29AA09AA19AAA98A898A998B1
:1005E8007880E881E058E0937202E881E054E09373
:1005F8007302A4E1B0E00E946B030E9463030E94AF
:1006080063030E946303A0E271DF88EC90E0019726
:10061800F1F7A8E27FDFA4E07DDFA5E87BDFA6E0B5
:1006280079DF91DF21960895BA93AA93A991B99198
:10063800EE27FF276D91662311F03196FBCF0895C1
:10064800BA93AA93AA27BB27E991F99105900020AC
:1006580011F01196FBCFFD0108952A93AD85BE8553
:10066800EF85F88909950895E889F9893497E88B21
:10067800F98B0895AD85BE85EF85F88909950895AC
:10068800A889B98914960E94B104EE83FF83AE81CC
:10069800BF810895A889B98914960E94B104EA8790
:1006A800FB870895DE011C960E949C040E94B104F9
:1006B80008950E948E02A3E0B0E00C946B03A0E3BF
:1006C8000E947A0288EC90E00197F1F7089510965D
:1006D80039F0A89580ED97E00197F1F71197C9F7E0
:1006E8000895552342F4503811F4E0FF04C03196C0
:1006F800691F791F6BF050E8572711F45F9373C097
:100708005F3F31F0660F000C57956795752F089578
:100718005F9300200AF073C06CC050E8192E1522B0
:10072800880F991F9527550F879550E8072E0522A2
:10073800660F771F7527550F67950895689401C050
:10074800E8945F93F2DF703818F07F3F08F44BC0ED
:1007580056E1571BAAF4519558300EF4593030F031
:10076800EFEFFFEF6FEF7FE777F91AC07727552391
:10077800B9F0EE0FFF1F661F771F5A95D1F710C00B
:100788007727583028F0EF2FF62F672F5850F9CFDA
:10079800552331F076956795F795E7955A95D1F7F2
:1007A80000200AF4CDD05F910895689401C0E894C0
:1007B800309760407040B1F0002426F0772312F49F
:1007C8000094BED0172E7EE1112032F07A95EE0FFC
:1007D800FF1F661F111CF9CFEF2FF62F612D5F93B6
:1007E8008ADF5F910895EE27FF27662777275F91B5
:1007F8000895EFEFFFEF6FE77FEF5F910895EFEF59
:10080800FFEF6FE77FE75F9108955F9386DF7038AA
:1008180051F3903841F301240894791F23F41CF311
:1008280000203AF3ECCF0F921F932F933F934F93EF
:10083800112722279927689FA0018F9F302D410DEE
:10084800591F6B9F300D411D591F8E9F27D0BF9F89
:1008580025D06A9F23D0BE9F1DD0AF9F1BD0AE9FCF
:10086800110D291F391F491F591FE32FF42F652F19
:10087800522F4F913F912F911F910F9066232AF08D
:10088800550FEE1FFF1F661F02C073954BF229DF3D
:100898005F910895100D211D391F02C0200D311DD3
:1008A800491F591F08955F9338DF703821F41120CC
:1008B8000AF49FCFA4CF903809F495CF0124089467
:1008C800970B1BF4D4F30020F3CF792F1F932F93AA
:1008D8003F934F9311241127222733274427552765
:1008E80090E2AE17BF078607410730F0AE1BBF0B7B
:1008F800860B410B089401C08894551F221F331F93
:10090800111CAA1FBB1F881F441F9A9551F7F90194
:10091800612D4F913F912F911F91662332F0550F12
:10092800EE1FFF1F661F7A9543F2DBDE5F91089585
:100938000024AF0DB01D0895F195E195F04008959C
:10094800F09560957095E195FF4F6F4F7F4F089533
:100958006F2F660F660B762F0895ED91FC91119716
:1009680008950590F491E02D08957A936A93FA9387
:10097800EA9308955A934A933A932A931A930A93B7
:1009880008955D814C813B812A81198108810895F0
:00000001FF
