:100000000C9469000C9400000C9400000C94000007
:100010000C9400000C9400000C9400000C94000060
:100020000C9400000C9400000C9400000C94000050
:100030000C9400000C9400000C9400000C94000040
:100040000C9400000C9400000C9400000C94000030
:100050000C9400001027E80364000A00010000105F
:10006000000110000100436F6E6E656374696F6E6E
:10007000006572726F72210054656D703A005072A3
:1000800065733A00253032752E253032752563436D
:1000900000253034752E253032756850610001001E
:1000A0002D4E414E00494E46000080C00B006002BC
:1000B000660007006B0271000600720278000600FD
:1000C00078027E000100BA029E000200BE02AA0071
:1000D0000000F894EE27ECBBF1E0FBBFEBBFE5BFFF
:1000E0008DE0A2E0BB27ED938A95E9F780E098E0E8
:1000F000A0E6ED930197E9F7ECEAF0E085919591A0
:10010000009761F0A591B59105901590BF01F001A0
:1001100005900D920197E1F7FB01F0CFEFE5EDBF00
:10012000E8E0EEBFC0E6D2E00C94C203AA930E94BE
:100130002206A8810E9455070E9430070C94A7054B
:10014000AA931A930E9422060E942A06A0E00E9407
:100150003A071E2F0E943007E12F18810C94A70543
:10016000AA9322970E942107ACEE0E945507AA810C
:100170000E9455070E942A06A1E00E943A07E883E0
:10018000A0E00E943A07E9830E943007E881F981E4
:100190000C94D9051A930A9300E017E2E5EFEA936D
:1001A000A02FC4DFE4EFEA93A12FC0DF09911991DA
:1001B0000895A0EDC5DFE83519F0E0E0F0E008951E
:1001C000E0EEEA93A6EBB2DFA4E6B0E00E946D0792
:1001D000A3EFB6DFE170E13029F4A4E6B0E00E94BD
:1001E0006D07F6CFA8E8BCDFE0938A02F0938B029C
:1001F000AAE8B6DFE0938C02F0938D02ACE8B0DFA2
:10020000E0938E02F0938F02AEE8AADFE0939002B3
:10021000F0939102A0E9A4DFE0939202F09393029D
:10022000A2E99EDFE0939402F0939502A4E998DF9F
:10023000E0939602F0939702A6E992DFE09398028A
:10024000F0939902A8E98CDFE0939A02F0939B0265
:10025000AAE986DFE0939C02F0939D02ACE980DF7F
:10026000E0939E02F0939F02AEE97ADFE093A00252
:10027000F093A1028FDFE1E0F0E008952497E0E041
:10028000EB830E942107ACEE0E945507A7EF0E9466
:1002900055070E942A060E942F06A1E00E943A07F5
:1002A000E8830E943806E0938202F0938302609311
:1002B0008402709385020E942F06A0E00E943A07F4
:1002C000E8830E9430070E943806E0937E02F09394
:1002D0007F02609380027093810224960895BA93FE
:1002E000AA932897CBDF0E9442060E944B067F9379
:1002F0006F93FF93EF93A0918A02B0918B028827AE
:1003000099270E9452060E94D607AF91BF918F9104
:100310009F910E948A07E0918C02F0918D020E94C9
:1003200057060E945E060E9465060E9442060E94D1
:100330006A06DF01CB01E0918A02F0918B02662709
:1003400077270E9451080E9485070E9471060E942B
:100350007806DF01CB01E0918E02F0918F020E94BE
:100360005706E0E0F0E460E070E00E9400080E94C0
:100370007F060E9482060E948506E0938602F09323
:1003800087026093880270938902A5E0B0E080E064
:1003900090E00E94D607E058FF4F6F4F7F4FDF017C
:1003A000CB01E0E0F1E060E070E00E940008A88589
:1003B000B9850E943408E1E0F0E02A960895BA93E6
:1003C000AA932C97A0918602B0918702809188020F
:1003D000909189020E9452060E940008E050FA4F54
:1003E000604070400E948C060E9491060E94960612
:1003F0000E9471060E945E06DF01CB01E0919A0225
:10040000F0919B020E94AC070E94D6070E946506ED
:10041000E0919802F09199020E949D060E94A70720
:100420000E9485060E946506AC81BD818E819F81F8
:100430000E9496067F936F93FF93EF93A09196028D
:10044000B09197020E94B107E0E0F0E061E070E057
:100450000E94D607AF91BF918F919F910E947B0719
:100460000E946506E0919402F09195020E94AC070B
:100470007F936F93FF93EF930E9491060E949606DD
:100480007F936F93FF93EF930E9491060E949606CD
:10049000AF91BF918F919F910E94A3060E94A806E1
:1004A0000E940008AF91BF918F919F910E94A30677
:1004B0000E944B067F936F93FF93EF93E09192021C
:1004C000F09193020E949D06DF01CB010E9452062B
:1004D0000E940008AF91BF918F919F910E94800769
:1004E000E0E0F0E064E070E00E94AD06E050F0482B
:1004F0006F4F7F4FDF01CB01E0919002F0919102AD
:10050000662777270E94A306E0E0F0E860E070E04D
:100510000E94AD060E945E0819F4E0E0F0E0A7C07A
:10052000A0918202B0918302809184029091850211
:10053000E0E0F0E060E170E00E9485077F936F9358
:10054000FF93EF93AC81BD818E819F810E947806DD
:10055000AF91BF918F919F910E948A07E5E3FCE0E4
:1005600060E070E00E94B6070E947F060E94B50618
:10057000A030E0E0BE07E0E08E07E0E89E0768F408
:100580000E9482060E94A707DF01CB01E885F9855A
:100590006A857B850E94DB070AC0E885F9856A8544
:1005A0007B850E94B5060E94DB070E94A7070E9478
:1005B0004708E091A002F091A1020E94AC077F934E
:1005C0006F93FF93EF930E94B8067F936F93FF930F
:1005D000EF930E94B806AF91BF918F919F910E94B7
:1005E000B607DF01CB010E94A8060E94DB07AF918E
:1005F000BF918F919F910E94A3060E9478060E944E
:100600008C060E94B506E4E0F0E060E070E00E9435
:10061000DB07DF01CB01E0919E02F0919F020E9477
:1006200057060E94A8060E9400080E946506EC81F9
:10063000FD816E817F810E9491060E948007E0917A
:100640009C02F0919D020E94AC070E9480070E94CC
:100650006A060E94B5060E947B070E947F060E94E0
:100660008206AC85BD850E943408E1E0F0E02E965C
:1006700008959FDD309771F4E0E00E94C006A0E687
:10068000B2E00E94CA05E0E00E94C406ABE6B2E018
:100690000E94CA05E0E00E94C406A2E7B2E00E9400
:1006A000CA05E0E00E94C006A8E7B2E00E94CA05C1
:1006B000A2EBB2E014DEA6EBB2E081DEE5E00E9440
:1006C000C406A091B502AA23A2F4ADE20E94B5052A
:1006D000A091B202B091B3020E94720566277727FB
:1006E000E093B202F093B3026093B4027093B50248
:1006F00003C0A0E20E94B505E2EAF2E0FA93EA93B1
:10070000E4E8F0E0FA93EA930E94C8060E94000829
:100710000E944C080E94C8060E9409080E944C08CA
:10072000EFEDF0E060E070E00E944C088CE00E9489
:100730003E056096A2EAB2E00E94CA05E6E00E9489
:10074000C006E2EAF2E0FA93EA93E1E9F0E0FA9314
:10075000EA930E94D5060E94DB070E944C080E9483
:10076000D5060E9405080E944C0888E00E943E05BC
:100770002C96A2EAB2E00E94CA05A0EDB7E00E9462
:100780006D0708950E941C07A0E10E94DB0571DF40
:10079000FECFFFCFBA93AA931A930A93AA81BB8183
:1007A00012960E943008309759F1AA81BB811496A5
:1007B0000E9430088F01309761F00230E0E01E07A0
:1007C00098F0F80131978F01AA81BB811496ED93BF
:1007D000FC93AA81BB811296ED91FD913196FE9317
:1007E000EE933197AC81A083AA81BB810E9430082F
:1007F000FF232AF0ED91FD913196FE93EE9306C012
:10080000AA81BB81EFEFFFEFED93FC931981088183
:1008100025960895BA93AA9326970E94620810E03D
:10082000AC85BD85E0E0F0E0ED93FC93EA89FB89BF
:100830003196EA8BFB8B3197E4912E2FE03009F44F
:1008400015C1E12FE03039F4253211F411E002C076
:100850000E94E2060AC1E130A9F4253219F40E948F
:10086000E20602C112E040E000E02D3211F401E0A6
:10087000FCC02B3211F44BE2F8C0203211F440E2FC
:10088000F4C002C0E23039F450E013E0203311F438
:100890000068EBC003C0E33009F0E7C0203310F07C
:1008A0002A3308F007C0AAE05A9F502DE22FE053E8
:1008B0005E0FDBC0E22FE33649F40E94E906E889C7
:1008C000F989A481AA930E94EF06CEC0E33741F4D0
:1008D0000E94E9060E94F5060E9409061E2F0AC022
:1008E000E03761F40E94E9060E94F5060E941506B1
:1008F0001E2F086002600F7730E034C0E43611F03C
:10090000E93611F4046002C0E53731F4E4E5F0E0C3
:10091000EE83FF8315E00CC0E83511F4086003C0D6
:10092000E83709F0A1C0EEE5F0E0EE83FF8314E0C4
:1009300002FF14C00E94E9060E94FF06AB85AA23AD
:100940003AF4EA85FB850E948F07EA87FB874DE230
:10095000403011F01F5F01C00B7F04C00E94E90608
:100960000E94FF0600FD11C0151778F407FF08C0AC
:1009700002FF04C00B7F242F115001C020E301C0EF
:1009800020E20E94E2065150EFCF312F01FF17C045
:100990003030A1F003FF06C0EE81FF812591EE8388
:1009A000FF8305C0AE81BF812D91AE83BF830E94BE
:1009B000E206503009F051503150EACF4BC020E3ED
:1009C000EE81FF810E943908E887F987EE81FF8177
:1009D0003296EE83FF83E885F985AA85BB85AE173D
:1009E000BF0750F02F5FA885B985EA85FB85EA1B14
:1009F000FB0BEA87FB87EFCF2A3328F003FF02C007
:100A0000295F01C0295D04FD1AC0213320F4A885A7
:100A1000B985119709F409C0531710F000FF01C000
:100A200013C020E207FF0BC020E3006102FF07C0F4
:100A30000B7F4A930E94EF06503009F051500E94FC
:100A4000E206503009F051503150A885B98512970F
:100A500008F0B5CF00FF08C0503031F05150E0E24F
:100A6000EA930E94EF06F8CF10E0E0CEAC85BD859A
:100A70000E9430080E94690864960895FF92F82E3B
:100A800026970E9464080E940707309719F4EFEF39
:100A9000FFEF23C0DE0116960E9477078D010E94AA
:100AA0000707EE83FF83E0E0E887E987DE011A9617
:100AB0000E9477070E943008FA93EA931A930A93E8
:100AC000EAECF3E0FA93EA93DE011A96A3DE9F01C3
:100AD000AE81BF81E0E0EC93F9010E946B082A9699
:100AE000FF900895BA93AA93E991F99130971AF477
:100AF000E095F09531960895AA93E2B3EF70AE2F8A
:100B0000E881E07FEA2BE2BB8DE08A95F1F7929ACB
:100B10008DE08A95F1F792988DE08A95F1F777C08C
:100B2000AA93A881E9DFE881E295E883A881E4DF60
:100B300085E88A95F1F76BC0AA93E881F0E0E2546A
:100B4000FD4FE081A981AE0FEBDF598048802296EE
:100B50000895A2E00E940E07ACE0E2DFA1E00E944F
:100B60000E07E0E04E2E5E2E0895AA93A881AA30CB
:100B700011F0571448F0E0E0EA934394A42DDCDF31
:100B8000A881AA3009F443C05394909AA881C8DF81
:100B900090983DC0BA93AA931A93A981BA81ED9116
:100BA000A983BA831E2FE03019F0A12FDEDFF5CF25
:100BB000188123960895AA93E1B3E06FE1BB8A9A66
:100BC000889A899A9298909891987880E881E058CC
:100BD000E093C002E881E054E093C102A4E1B0E0F8
:100BE0000E946D070E9414070E9414070E941407B8
:100BF000A0E282DF88EC90E00197F1F7A8E290DFB5
:100C0000A4E08EDFA5E88CDFA6E08ADFA2DF2196D4
:100C10000895BA93AA93A991B991EE27FF276D91F0
:100C2000662311F03196FBCF0895BA93AA93AA27B1
:100C3000BB27E991F9910590002011F01196FBCFA7
:100C4000FD0108950E942107ACEE0E945507A9817D
:100C50000C9455070E942107ADEE0C945507A1E0B6
:100C60000E943A07EA83A1E00E943A07E9830895C7
:100C70000E944208E4E00E949B07EF7FFF7F6F70B5
:100C800070700895A0917E02B0917F0280918002E1
:100C9000909181020895E8E0F0E060E070E00E9449
:100CA00000080895E2E0F0E060E070E008950E943E
:100CB000AC070E94D607DF01CB010895E0E0F8E021
:100CC00060E070E00E9400080895EC83FD836E836D
:100CD0007F830895E0E1F0E060E070E00E940008AA
:100CE0000895DF01CB010E94D607DF01CB010895F3
:100CF000E0E0F0E160E070E00E94000808950E94EA
:100D0000470808950E943D080895AC81BD818E81F9
:100D10009F810E947B070895E887F9876A877B8710
:100D20000895A885B9858A859B850895E4E0F0E05B
:100D300060E070E00E94000808950E94AC07F1DFB7
:100D40000E94D60708950E94D607DF01CB010895BF
:100D5000E0E0F0E260E070E008950E940008DCDF6F
:100D6000E885F9856A857B8508950E944208089583
:100D7000FCDFE8E0F0E060E070E00E94DB0708954F
:100D8000EA93A0E00C949C05EA93A1E00C949C05E6
:100D9000A091B202B091B3028091B4029091B502D9
:100DA000E4E6F0E060E070E00895A091B602B09152
:100DB000B7028091B8029091B902E4E6F0E060E0F9
:100DC00070E008952A93AD85BE85EF85F889099571
:100DD0000895E889F9893497E88BF98B0895AD85F2
:100DE000BE85EF85F88909950895A889B989149673
:100DF0000E943008EE83FF83AE81BF810895A889E9
:100E0000B98914960E943008EA87FB870895DE01AD
:100E10001C960E9477070E94300808950E94900552
:100E2000A3E0B0E00C946D07A0E30E947C0588EC81
:100E300090E00197F1F70895A898A998A09AA19831
:100E400015C0A198A098EE270000999B0895989B43
:100E5000089504D0A19A02D0A09AE1E06DE007C005
:100E6000A19AA09A03D0A098F9DFA1986BE16A95A6
:100E7000F1F7089578E0A098F1DF989BFECFEEDFC0
:100E8000889499990894A09AF1DFEE1F7A9599F7C2
:100E90007A2F772311F4A19801C0A19ADFDFA098DF
:100EA000E5DFA09ADBDFA198D9CF78E0AA0F10F494
:100EB000A19801C0A19ADADFA098D0DF989BFECF5D
:100EC000CDDFA09A7A9591F7A198C8DFA098CEDFE0
:100ED000E1E09999EE27A09AC1CF109639F0A89534
:100EE00080ED97E00197F1F71197C9F70895002475
:100EF000AF0DB01D0895EA0FFB1F681F791F0895FD
:100F0000AE0FBF1F861F971F0895EA1BFB0B680BD0
:100F1000790B0895AE1BBF0B860B970B0895F195C7
:100F2000E195F0400895F09560957095E195FF4F3B
:100F30006F4F7F4F0895EE230E2EFD01BC0131F05F
:100F400076956795F795E7950A94D1F70895EE0F92
:100F5000FF1F661F771F08956F2F660F660B762F92
:100F600008958B2F880F880B982F08957A9F702DE6
:100F70006B9F700DF89F700DE99F700D6A9F602D3B
:100F8000710DFB9F600D711DE89F600D711D88271D
:100F9000FA9FF02D610D781FEB9FF00D611D781FFA
:100FA000EA9FE02DF10D681F781F089546D0DEDF1F
:100FB0000EF4B9DF08953F934F935F9300241124FB
:100FC0004427552730E2AA0FBB1F881F991F001C1A
:100FD000111C441F551F0E1A1F0A460B570B28F4ED
:100FE0000E0E1F1E461F571F01C0A1603A9559F7EC
:100FF000FD01BC01D001CA015F914F913F9108955D
:101000001CD0D9DF0EF48FDF0895D5DFFD01BC01C0
:101010000895E89497FF09C0A095B09580959095A4
:10102000AF5FBF4F8F4F9F4F689477FD7CDFC3DF6B
:10103000FD01BC010EF477DF0895E89477FF02C04C
:1010400072DF689497FF0BC00024A095B09580953F
:1010500090951196801D901D00F8039400FA089554
:10106000ED91FC9111970895ED93FD936D937C9311
:1010700008950590F491E02D0895E881F9816A8141
:101080007B810895A881B9818A819B810895E88335
:10109000F9836A837B8308957A936A93FA93EA9338
:1010A0000895182E862F612D192E972F712D1B2E26
:1010B000BF2FF12D1A2EAE2FE12D089530976040ED
:1010C000704008955A934A933A932A931A930A9335
:1010D00008955D814C813B812A81198108810895A1
:00000001FF
