:060000000C9444000C9476
:1000060000000C9400000C9400000C9400000C946A
:1000160000000C9400000C9400000C9400000C945A
:1000260000000C9400000C9400000C9400000C944A
:1000360000000C9400000C9400000C9400000C943A
:1000460000000C9400000C9400000C940000102793
:10005600E80364000A00010000100001100001001E
:10006600766962726174696F6E3D2564002500537E
:10007600573138303130500080C0020060027E00B7
:100086000000F894EE27ECBBF1E0F5BFE5BF8DE08C
:10009600A2E0BB27ED938A95E9F780E098E0A0E619
:1000A600ED930197E9F7E0E8F0E0859195910097E7
:1000B60061F0A591B59105901590BF01F0010590ED
:1000C6000D920197E1F7FB01F0CFEFE5EDBFE8E018
:1000D600EEBFC0E6D2E00C947D00AA93E881E7B9B2
:1000E60083E08A95F1F7369A349BFECF349AE4B1D1
:1000F600F5B11DC16497E0E0EABBEBBBE2E0E7BB0C
:10010600E0E0E8BBE4BBE5BBEFEFE1BBE0E0E2BB70
:10011600E3BFE2BFECBFEFBDEEBDEDBDECBDE7BD9D
:10012600E6BDEBBDEABDE9BDE8BDE2BDE5BDE4BDAA
:10013600E3BDE9BFE5BFE4BFEAB9E0E8E8B9E0E05E
:10014600E7B9E5E8E6B9E0E0E0BFEDB9E6BFA0E172
:10015600C3D0B09B02C0C19801C0C19AA0E0BDDF68
:10016600662777270E940604E88BF98B6A8B7B8BC0
:10017600A889B9898A899B89E0E0F0E068EC72E495
:100186000E948B04DF01CB01E0E0F0EC6FE774E442
:100196000E94D904A0E0B0E088EC92E40E944005F9
:1001A6000E9439040E94CF038F01FE01FA93EA935D
:1001B600E6E6F0E0FA93EA93F8010E942E050E9423
:1001C6003B0584E00E9410032896E0E0EA93A0E055
:1001D60033D0DE015FD0A3E7B0E06BD0E2E0EA9374
:1001E600A1E02AD0A5E7B0E064D0A4EFB1E00E9478
:1001F60096032FD0AECFFFCFAA93E2B3EF70AE2F08
:10020600E881E07FEA2BE2BB82E08A95F1F7929AD9
:1002160082E08A95F1F7929882E08A95F1F787C095
:10022600AA93A881E9DFE881E295E883A881E4DF63
:1002360081E18A95F1F77BC0AA93E881F0E0E05A64
:10024600FD4FE081A981AE0FEBDF598048802296F1
:100256000895A2E00E945D03ACE0E2DFA1E00E9407
:100266005D03E0E04E2E5E2E0895AA93A881AA3083
:1002760011F0571448F0E0E0EA934394A42DDCDF34
:10028600A881AA3009F453C05394909AA881C8DF74
:1002960090984DC0BA93AA931A93A981BA81ED9109
:1002A600A983BA831E2FE03019F0A12FDEDFF5CF28
:1002B60010C0BA93AA931A93E981FA813196E98319
:1002C600FA833197E4911E2FE03019F0A12FCDDF8C
:1002D600F3CF188123960895AA93E1B3E06FE1BBAB
:1002E6008A9A889A899A9298909891987880E881C3
:1002F600E058E0936202E881E054E0936302A4E1EF
:10030600B0E00E9496030E9463030E9463030E946A
:100316006303A0E271DF81E28A95F1F7A8E280DF4C
:10032600A4E07EDFA5E87CDFA6E07ADF92DF2196F7
:100336000895BA93AA931A930A93AA81BB81129637
:100346000E943305309759F1AA81BB8114960E9409
:1003560033058F01309761F00230E0E01E0798F018
:10036600F80131978F01AA81BB811496ED93FC9316
:10037600AA81BB811296ED91FD913196FE93EE9383
:100386003197AC81A083AA81BB810E943305FF23EC
:100396002AF0ED91FD913196FE93EE9306C0AA8167
:1003A600BB81EFEFFFEFED93FC9319810881259652
:1003B6000895BA93AA9326970E944D0510E0AC853E
:1003C600BD85E0E0F0E0ED93FC93EA89FB89319688
:1003D600EA8BFB8B3197E4912E2FE03009F415C19F
:1003E600E12FE03039F4253211F411E002C00E9409
:1003F6006A030AC1E130A9F4253219F40E946A039E
:1004060002C112E040E000E02D3211F401E0FCC030
:100416002B3211F44BE2F8C0203211F440E2F4C062
:1004260002C0E23039F450E013E0203311F40068E2
:10043600EBC003C0E33009F0E7C0203310F02A33E5
:1004460008F007C0AAE05A9F502DE22FE0535E0F36
:10045600DBC0E22FE33649F40E947103E889F9898B
:10046600A481AA930E947703CEC0E33741F40E9489
:1004760071030E947D030E9444031E2F0AC0E037C9
:1004860061F40E9471030E947D030E9450031E2F97
:10049600086002600F7730E034C0E43611F0E936C8
:1004A60011F4046002C0E53731F4E4E5F0E0EE83D0
:1004B600FF8315E00CC0E83511F4086003C0E83787
:1004C60009F0A1C0EEE5F0E0EE83FF8314E002FF41
:1004D60014C00E9471030E948703AB85AA233AF4D5
:1004E600EA85FB850E942205EA87FB874DE24030BC
:1004F60011F01F5F01C00B7F04C00E9471030E94B0
:10050600870300FD11C0151778F407FF08C002FF26
:1005160004C00B7F242F115001C020E301C020E24C
:100526000E946A035150EFCF312F01FF17C03030C0
:10053600A1F003FF06C0EE81FF812591EE83FF83C4
:1005460005C0AE81BF812D91AE83BF830E946A0331
:10055600503009F051503150EACF4BC020E3EE81C4
:10056600FF810E943705E887F987EE81FF81329681
:10057600EE83FF83E885F985AA85BB85AE17BF079D
:1005860050F02F5FA885B985EA85FB85EA1BFB0B32
:10059600EA87FB87EFCF2A3328F003FF02C0295FE3
:1005A60001C0295D04FD1AC0213320F4A885B98550
:1005B600119709F409C0531710F000FF01C013C0CA
:1005C60020E207FF0BC020E3006102FF07C00B7F9C
:1005D6004A930E947703503009F051500E946A03F3
:1005E600503009F051503150A885B985129708F05E
:1005F600B5CF00FF08C0503031F05150E0E2EA9329
:100606000E947703F8CF10E0E0CEAC85BD850E944E
:1006160033050E94540564960895FF92F82E269796
:100626000E944F050E948F03309719F4EFEFFFEFFA
:1006360023C0DE0116960E941E058D010E948F03BF
:10064600EE83FF83E0E0E887E987DE011A960E94E1
:100656001E050E943305FA93EA931A930A93ECE96E
:10066600F1E0FA93EA93DE011A96A3DE9F01AE81CA
:10067600BF81E0E0EC93F9010E9456052A96FF90AF
:100686000895BA93AA93A991B991EE27FF276D9180
:10069600662311F03196FBCF0895BA93AA93AA2741
:1006A600BB27E991F9910590002011F01196FBCF37
:1006B600FD0108950E941301A3E0B0E00C94960397
:1006C600A0E30E94FF0081E28A95F1F708952A933C
:1006D600AD85BE85EF85F88909950895E889F9897C
:1006E6003497E88BF98B0895AD85BE85EF85F8893B
:1006F60009950895A889B98914960E943305EE8351
:10070600FF83AE81BF810895A889B98914960E9496
:100716003305EA87FB870895DE011C960E941E05B5
:100726000E9433050895109639F0A8958AEF90E057
:100736000197F1F71197C9F70895552342F45038F8
:1007460011F4E0FF04C03196691F791F6BF050E881
:10075600572711F45F93CAC05F3F31F0660F000C54
:1007660057956795752F08955F9300200AF0CAC0C4
:10077600C3C050E8192E1522880F991F9527550FCB
:10078600879550E8072E0522660F771F7527550FA8
:1007960067950895689401C0E8945F93F2DF703816
:1007A60018F07F3F08F4A2C056E1571BAAF45195F2
:1007B60058300EF4593030F0EFEFFFEF6FEF7FE770
:1007C60077F91AC077275523B9F0EE0FFF1F661F7A
:1007D600771F5A95D1F710C07727583028F0EF2F9A
:1007E600F62F672F5850F9CF552331F07695679538
:1007F600F795E7955A95D1F700200AF424D15F9131
:100806000895689401C0E894309760407040B1F054
:10081600002426F0772312F4009415D1172E7EE1DA
:10082600112032F07A95EE0FFF1F661F111CF9CFCB
:10083600EF2FF62F612D5F938ADF5F9108954F9317
:10084600AF01FD01DA01AB01BC01CA01402D012C4B
:10085600142E4F910895EA0FFB1F681F0895E09527
:10086600F0956095EF5FFF4F6F4F08955F9381DFBF
:10087600903849F150E81526703821F1572F591B49
:100886002BF112F4DCDFFACF583118F0AA27BB2778
:100896008827583028F0AB2FB82F88275850F9CF23
:1008A600552329F08695B795A7955A95D9F7502DD2
:1008B600512572F0D0DF38F46795F795E795739573
:1008C60013F420C0BCDF43DF5F910895D8F7FBCF58
:1008D600EA1BFB0B680B51F010F40094C0DF662393
:1008E60092F3EE0FFF1F661F7A95CBF7EE27FF27D1
:1008F600662777275F910895EFEFFFEF6FE77FEFAA
:100906005F910895EFEFFFEF6FE77FE75F9108953F
:100916005F932FDF703851F3903841F30124089428
:10092600791F23F41CF300203AF3ECCF0F921F93A8
:100936002F933F934F93112722279927689FA00152
:100946008F9F302D410D591F6B9F300D411D591F33
:100956008E9F27D0BF9F25D06A9F23D0BE9F1DD0D4
:10096600AF9F1BD0AE9F110D291F391F491F591F5D
:10097600E32FF42F652F522F4F913F912F911F9107
:100986000F9066232AF0550FEE1FFF1F661F02C049
:1009960073954BF2D2DE5F910895100D211D391F1C
:1009A60002C0200D311D491F591F08955F93E1DED6
:1009B600703821F411200AF49FCFA4CF903809F49F
:1009C60095CF01240894970B1BF4D4F30020F3CFA2
:1009D600792F1F932F933F934F931124112722278B
:1009E60033274427552790E2AE17BF0786074107EE
:1009F60030F0AE1BBF0B860B410B089401C08894E8
:100A0600551F221F331F111CAA1FBB1F881F441FFF
:100A16009A9551F7F901612D4F913F912F911F91B1
:100A2600662332F0550FEE1FFF1F661F7A9543F2BD
:100A360084DE5F9108950024AF0DB01D0895F195F1
:100A4600E195F0400895F09560957095E195FF4F1A
:100A56006F4F7F4F08956F2F660F660B762F0895A1
:100A6600ED91FC91119708950590F491E02D08956C
:100A76007A936A93FA93EA930895182E862F612D36
:100A8600192E972F712D1B2EBF2FF12D1A2EAE2F3B
:100A9600E12D08955A934A933A932A931A930A9307
:100AA60008955D814C813B812A81198108810895D1
:00000001FF
