:0C0000000C9441000C9400000C940000D3
:10000C000C9400000C9400000C9400000C94000064
:10001C000C9400000C9400000C9400000C94000054
:10002C000C9400000C9400000C9400000C94000044
:10003C000C9400000C9400000C9400000C94000034
:10004C000C9400000C9400001027E80364000A00D4
:10005C000100001000011000010047617320616D68
:10006C006F756E743A2025640025000080C0020074
:10007C00740278000000F894EE27ECBBF1E0F5BFB9
:10008C00E5BF8DE0A2E0BB27ED938A95E9F780E010
:10009C0098E0A0E6ED930197E9F7EAE7F0E08591A7
:1000AC009591009761F0A591B59105901590BF01C0
:1000BC00F00105900D920197E1F7FB01F0CFEFE510
:1000CC00EDBFE8E0EEBFC0E6D2E00C94FC00AA93D2
:1000DC00E881E7B98BE18A95F1F7369A349BFECF2C
:1000EC00349AE4B1F5B10C944B03AA93E0E0E7B970
:1000FC00E0E8E6B9E881F0E0E230A0E0FA0711F4BC
:10010C00309A28C0E430A0E0FA0711F4319A22C0EA
:10011C00E830A0E0FA0719F4E6B1E3601AC0E03168
:10012C00A0E0FA0711F4329A15C0E032A0E0FA0709
:10013C0019F4E6B1E5600DC0E034A0E0FA0739F03F
:10014C00E038A0E0FA0719F4E6B1E76002C0E6B1C6
:10015C00E660E6B9E0E0E0BF0C944B03A0E0B7DF4B
:10016C00A0E6B2E0662777270E9410040E94EA04FA
:10017C00A0916002B0916102809162029091630241
:10018C00E0E0F0E068EC72E40E943E04DF01CB0199
:10019C00E0E0F0EC6FE774E40E948C040E94D90359
:1001AC002F01E4E6F2E0FA93EA93E6E6F0E0FA9344
:1001BC00EA93F2010E94E1040E94F30484E00E949D
:1001CC007B022896E0E0EA93A0E00E94CF02A4E62E
:1001DC00B2E00E94FD02A5E7B0E00E940C03A4EF80
:1001EC00B1E00E94A0030E94DC020895E0E0EABBAB
:1001FC00EBBBA0E10E941F03A0E477DFAFDFFECFD3
:10020C00FFCFBA93AA931A930A93AA81BB81129631
:10021C000E94E604309759F1AA81BB8114960E9482
:10022C00E6048F01309761F00230E0E01E0798F091
:10023C00F80131978F01AA81BB811496ED93FC9341
:10024C00AA81BB811296ED91FD913196FE93EE93AE
:10025C003197AC81A083AA81BB810E94E604FF2365
:10026C002AF0ED91FD913196FE93EE9306C0AA8192
:10027C00BB81EFEFFFEFED93FC931981088125967D
:10028C000895BA93AA9326970E94F80410E0AC85BF
:10029C00BD85E0E0F0E0ED93FC93EA89FB893196B3
:1002AC00EA8BFB8B3197E4912E2FE03009F415C1CA
:1002BC00E12FE03039F4253211F411E002C00E9434
:1002CC0066030AC1E130A9F4253219F40E946603D1
:1002DC0002C112E040E000E02D3211F401E0FCC05C
:1002EC002B3211F44BE2F8C0203211F440E2F4C08E
:1002FC0002C0E23039F450E013E0203311F400680E
:10030C00EBC003C0E33009F0E7C0203310F02A3310
:10031C0008F007C0AAE05A9F502DE22FE0535E0F61
:10032C00DBC0E22FE33649F40E946D03E889F989BA
:10033C00A481AA930E947303CEC0E33741F40E94B8
:10034C006D030E9479030E944D031E2F0AC0E037F3
:10035C0061F40E946D030E9479030E9459031E2FC1
:10036C00086002600F7730E034C0E43611F0E936F3
:10037C0011F4046002C0E53731F4E4E5F0E0EE83FB
:10038C00FF8315E00CC0E83511F4086003C0E837B2
:10039C0009F0A1C0EEE5F0E0EE83FF8314E002FF6C
:1003AC0014C00E946D030E948303AB85AA233AF408
:1003BC00EA85FB850E94D504EA87FB874DE2403035
:1003CC0011F01F5F01C00B7F04C00E946D030E94DF
:1003DC00830300FD11C0151778F407FF08C002FF56
:1003EC0004C00B7F242F115001C020E301C020E278
:1003FC000E9466035150EFCF312F01FF17C03030F0
:10040C00A1F003FF06C0EE81FF812591EE83FF83EF
:10041C0005C0AE81BF812D91AE83BF830E94660360
:10042C00503009F051503150EACF4BC020E3EE81EF
:10043C00FF810E94EF04E887F987EE81FF813296F5
:10044C00EE83FF83E885F985AA85BB85AE17BF07C8
:10045C0050F02F5FA885B985EA85FB85EA1BFB0B5D
:10046C00EA87FB87EFCF2A3328F003FF02C0295F0E
:10047C0001C0295D04FD1AC0213320F4A885B9857B
:10048C00119709F409C0531710F000FF01C013C0F5
:10049C0020E207FF0BC020E3006102FF07C00B7FC7
:1004AC004A930E947303503009F051500E94660326
:1004BC00503009F051503150A885B985129708F089
:1004CC00B5CF00FF08C0503031F05150E0E2EA9354
:1004DC000E947303F8CF10E0E0CEAC85BD850E947E
:1004EC00E6040E94FF0464960895FF92F82E269766
:1004FC000E94FA040E948B03309719F4EFEFFFEF80
:10050C0023C0DE0116960E94D1048D010E948B033C
:10051C00EE83FF83E0E0E887E987DE011A960E940C
:10052C00D1040E94E604FA93EA931A930A93E7E043
:10053C00F1E0FA93EA93DE011A96A3DE9F01AE81F5
:10054C00BF81E0E0EC93F9010E9401052A96FF902F
:10055C000895AA93E5B3EF70AE2FE881E07FEA2B04
:10056C00E5BB8DE08A95F1F7AA9A8DE08A95F1F7B3
:10057C00AA988DE08A95F1F788C0AA93A881E9DF43
:10058C00E881E295E883A881E4DF85E88A95F1F7B4
:10059C007CC0AA93E881F0E0EC58FD4FE081A98182
:1005AC00AE0FEBDF7980688022960895A2E00E945E
:1005BC009203ACE0E2DFA1E00E949203E0E06E2E39
:1005CC007E2E0895AA93A881AA3011F0791448F0D0
:1005DC00E0E0EA936394A62DDCDFA881AA3009F44D
:1005EC0054C07394A89AA881C8DFA8984EC0BA9337
:1005FC00AA931A93A981BA81ED91A983BA831E2F6C
:10060C00E03019F0A12FDEDFF5CF10C0BA93AA931A
:10061C001A93E981FA813196E983FA833197E4914F
:10062C001E2FE03019F0A12FCDDFF3CF18812396C8
:10063C000895AA93E4B3E06FE4BBA29AA09AA19A9E
:10064C00AA98A898A9989880E881E058E093760237
:10065C00E881E054E0937702A4E1B0E00E94A003AB
:10066C000E9498030E9498030E949803A0E271DFF5
:10067C0088EC90E00197F1F7A8E27FDFA4E07DDF42
:10068C00A5E87BDFA6E079DF91DF21960895BA9388
:10069C00AA93A991B991EE27FF276D91662311F0CA
:1006AC003196FBCF0895BA93AA93AA27BB27E99159
:1006BC00F9910590002011F01196FBCFFD010895E2
:1006CC002A93AD85BE85EF85F88909950895E8894B
:1006DC00F9893497E88BF98B0895AD85BE85EF8544
:1006EC00F88909950895A889B98914960E94E60499
:1006FC00EE83FF83AE81BF810895A889B9891496D2
:10070C000E94E604EA87FB870895DE011C960E948E
:10071C00D1040E94E60408950E94C302A3E0B0E055
:10072C000C94A003A0E30E94AF0288EC90E0019728
:10073C00F1F70895109639F0A89580ED97E00197A0
:10074C00F1F71197C9F70895552342F4503811F475
:10075C00E0FF04C03196691F791F6BF050E85727F2
:10076C0011F45F9373C05F3F31F0660F000C579527
:10077C006795752F08955F9300200AF073C06CC0C5
:10078C0050E8192E1522880F991F9527550F87951C
:10079C0050E8072E0522660F771F7527550F6795B2
:1007AC000895689401C0E8945F93F2DF703818F0F4
:1007BC007F3F08F44BC056E1571BAAF451955830B3
:1007CC000EF4593030F0EFEFFFEF6FEF7FE777F972
:1007DC001AC077275523B9F0EE0FFF1F661F771F3E
:1007EC005A95D1F710C07727583028F0EF2FF62FF5
:1007FC00672F5850F9CF552331F076956795F795BB
:10080C00E7955A95D1F700200AF4CDD05F91089561
:10081C00689401C0E894309760407040B1F00024B7
:10082C0026F0772312F40094BED0172E7EE111200F
:10083C0032F07A95EE0FFF1F661F111CF9CFEF2FC8
:10084C00F62F612D5F938ADF5F910895EE27FF27C6
:10085C00662777275F910895EFEFFFEF6FE77FEF44
:10086C005F910895EFEFFFEF6FE77FE75F910895DA
:10087C005F9386DF703851F3903841F3012408946C
:10088C00791F23F41CF300203AF3ECCF0F921F9343
:10089C002F933F934F93112722279927689FA001ED
:1008AC008F9F302D410D591F6B9F300D411D591FCE
:1008BC008E9F27D0BF9F25D06A9F23D0BE9F1DD06F
:1008CC00AF9F1BD0AE9F110D291F391F491F591FF8
:1008DC00E32FF42F652F522F4F913F912F911F91A2
:1008EC000F9066232AF0550FEE1FFF1F661F02C0E4
:1008FC0073954BF229DF5F910895100D211D391F5F
:10090C0002C0200D311D491F591F08955F9338DF18
:10091C00703821F411200AF49FCFA4CF903809F439
:10092C0095CF01240894970B1BF4D4F30020F3CF3C
:10093C00792F1F932F933F934F9311241127222725
:10094C0033274427552790E2AE17BF078607410788
:10095C0030F0AE1BBF0B860B410B089401C0889482
:10096C00551F221F331F111CAA1FBB1F881F441F9A
:10097C009A9551F7F901612D4F913F912F911F914C
:10098C00662332F0550FEE1FFF1F661F7A9543F258
:10099C00DBDE5F9108950024AF0DB01D0895F19535
:1009AC00E195F0400895F09560957095E195FF4FB5
:1009BC006F4F7F4F08956F2F660F660B762F08953C
:1009CC00ED91FC9111970895ED93FD936D937C93AC
:1009DC0008950590F491E02D08957A936A93FA9313
:1009EC00EA9308955A934A933A932A931A930A9343
:1009FC0008955D814C813B812A811981088108957C
:00000001FF
