:020000000C945E
:1000020046000C9400000C9400000C9400000C9428
:1000120000000C9400000C9400000C9400000C945E
:1000220000000C9400000C9400000C9400000C944E
:1000320000000C9400000C9400000C9400000C943E
:1000420000000C9400000C9400000C9400000C942E
:1000520000001027E80364000A00010000100001FC
:100062001000010000000A536F6D6577686174200B
:100072004563686F20546573743A200002000600DD
:1000820066001600600268000000F894EE27ECBBE0
:10009200F1E0F5BFE5BF8DE0A2E0BB27ED938A95C5
:1000A200E9F780E098E0A0E6ED930197E9F7EEE743
:1000B200F0E085919591009761F0A591B591059039
:1000C2001590BF01F00105900D920197E1F7FB0138
:1000D200F0CFEFE5EDBFE8E0EEBFC0E6D2E00C9472
:1000E200D200E0E0EBB9EAB1E861EAB9E0B5E6686E
:1000F200E0BDE3E3E9B9E0E0E0BD08955F9BFECF38
:10010200ECB10895AA93A881A13610F0AA3708F09D
:1001120003C0E881E052E8835D9BFECFEBE5ECB9DA
:100122005D9BFECFE881ECB95D9BFECFEDE5ECB9BE
:1001320021960895BA93AA931A9310E00E9401019E
:10014200E03039F05D9BFECF0E940101ECB91F5FE8
:10015200F5CF24C0BA93AA931A9310E05D9BFECF09
:10016200EBE5ECB90E940101E030A1F00E94080128
:10017200A13620F00E940801AA3708F004C00E94AC
:100182000101E052EC935D9BFECF0E940101ECB9AC
:100192001F5FE8CF5D9BFECFEDE5ECB9188123969A
:1001A20008959FDFA0E6B2E0C5DFA8DF5E2EEAE297
:1001B200E515F1F4E3E2E51551F01ED05E2EF301F0
:1001C20031963F013197EA58FD4F5082F3CFF30148
:1001D20031973F01EA58FD4FA0E0A083A6E7B2E0C5
:1001E200B9DFA0E9B1E00E940F016624772402C0C2
:1001F200A52D88DFDACFFFCF5F9BFECFECB108954C
:10020200A981BA81EE27A10FBE1FEC910895A981A1
:10021200BA81EE27A10FBE1FAC910895109639F056
:10022200A89580ED97E00197F1F71197C9F7089526
:00000001FF
