:0E0000000C9448000C9400000C9400000C942A
:10000E0000000C9400000C9400000C9400000C9462
:10001E0000000C9400000C9400000C9400000C9452
:10002E0000000C9400000C9400000C9400000C9442
:10003E0000000C9400000C9400000C9400000C9432
:10004E0000000C9400001027E80364000A00010071
:10005E0000100001100001005265616420446174BB
:10006E00613D2025750080C001002D4E414E004996
:10007E004E46000002006002740001006402760029
:10008E000000F894EE27ECBBF1E0FBBFEBBFE5BF41
:10009E00F8E1F1BDE1BD8DE0A2E0BB27ED938A95BD
:1000AE00E9F780E098E0A0E6ED930197E9F7E2E842
:1000BE00F0E085919591009761F0A591B59105902D
:1000CE001590BF01F00105900D920197E1F7FB012C
:1000DE00F0CFEFE5EDBFE8E0EEBFC0E6D2E00C9466
:1000EE00780060970E94AC03A0E10E947B0120E0A3
:1000FE0030E02436E0E03E0744F4E22FEE0FEA93C0
:10010E00D9012BD02F5F3F4FF4CF20E030E02436C3
:10011E00E0E03E0704F5D90132D00E2F11270E94E0
:10012E002C01FE01FA93EA93E6E6F0E0FA93EA93E5
:10013E00F8010E940F040E941C0484E00E94220316
:10014E002896DE010E945901A8EEB3E00E94FD033D
:10015E002F5F3F4FDCCFD9CFFFCFBA93AA930E9428
:10016E006F03A8810E94E503AA810E94E5030E9405
:10017E00C003AAE0B0E00E94FD030C946801BA939C
:10018E00AA931A930E946F03A9810E94E5030E940D
:10019E00B103A1EA0E94E503A0E00E94CA031E2F4C
:1001AE000E94C003E12F0C946701FFE0FA95F1F76E
:1001BE000895A7B3AF70A7BBC19AC098F6DFC29AD5
:1001CE00F4DFA6B3C298F1DFC29AEFDFC298A7FDA3
:1001DE00F5CF0895A07FAB2BA8BBC29A0E94DC007E
:1001EE00C2980E94DC000895AA93C198A7B3A76F86
:1001FE00A7BBB8B3BF70A881EDDFA881A295EADFD7
:10020E00C19A0C94AC01C29A0E94DC00E6B3C2986B
:10021E000E94DC00E07F08950E94DC00F4DFAE2F28
:10022E00F2DFC198E295EA2B0895AA930E94E000AE
:10023E00E881F0E0E05AFD4FE081A981AE0F0E9407
:10024E00FB0059804880229608950E94E000A2E0AB
:10025E000E94FB000E94E000ACE00E94FB000E94A6
:10026E00E000A1E00E94FB00E0E04E2E5E2E08951D
:10027E00AA93EF93FF93A8816894AA3019F0E8949B
:10028E00571430F04394E0E0EA93A42DCEDF36F01D
:10029E0053948FDFC09AA8810E94FB00FF91EF91CB
:1002AE000C94AC01BA93AA931A93A981BA81ED91D9
:1002BE00A983BA831E2FE03019F0A12FD9DFF5CF15
:1002CE00188123960895AA27BB271197F1F7089551
:1002DE00AA93C198A7B3A76FA7BBB8B3BF70A881E5
:1002EE000E94F100C19A31C0AA93C298C09878803A
:1002FE00E881E058E0936202E881E054E093630203
:10030E000E9477030E9477030E947703DCDFA0E24E
:10031E00DFDFD9DFA8E20E947C03A4E00E947C0309
:10032E00A5E80E947C03A7B3AF70A7BBC19A0E9439
:10033E001301E53011F0E0E008C00E94E000A6E0F5
:10034E000E94FB000E942C01E1E021960895BA93D1
:10035E00AA931A930A93AA81BB8112960E9414043F
:10036E00309759F1AA81BB8114960E9414048F0113
:10037E00309761F00230E0E01E0798F0F8013197F7
:10038E008F01AA81BB811496ED93FC93AA81BB8148
:10039E001296ED91FD913196FE93EE933197AC81CD
:1003AE00A083AA81BB810E941404FF232AF0ED9141
:1003BE00FD913196FE93EE9306C0AA81BB81EFEFBD
:1003CE00FFEFED93FC931981088125960895BA935A
:1003DE00AA9326970E94210410E0AC85BD85E0E02B
:1003EE00F0E0ED93FC93EA89FB893196EA8BFB8B67
:1003FE003197E4912E2FE03009F415C1E12FE03052
:10040E0039F4253211F411E002C00E9480030AC1B2
:10041E00E130A9F4253219F40E94800302C112E0E2
:10042E0040E000E02D3211F401E0FCC02B3211F45B
:10043E004BE2F8C0203211F440E2F4C002C0E230C8
:10044E0039F450E013E0203311F40068EBC003C020
:10045E00E33009F0E7C0203310F02A3308F007C06C
:10046E00AAE05A9F502DE22FE0535E0FDBC0E22F21
:10047E00E33649F40E948703E889F989A481AA9397
:10048E000E948D03CEC0E33741F40E9487030E9481
:10049E0093030E9456031E2F0AC0E03761F40E9498
:1004AE0087030E9493030E9462031E2F086002605E
:1004BE000F7730E034C0E43611F0E93611F4046001
:1004CE0002C0E53731F4E4E5F0E0EE83FF8315E09A
:1004DE000CC0E83511F4086003C0E83709F0A1C07C
:1004EE00EEE5F0E0EE83FF8314E002FF14C00E94FD
:1004FE0087030E949D03AB85AA233AF4EA85FB8508
:10050E000E940B04EA87FB874DE2403011F01F5F1B
:10051E0001C00B7F04C00E9487030E949D0300FD53
:10052E0011C0151778F407FF08C002FF04C00B7F37
:10053E00242F115001C020E301C020E20E9480034D
:10054E005150EFCF312F01FF17C03030A1F003FF14
:10055E0006C0EE81FF812591EE83FF8305C0AE813B
:10056E00BF812D91AE83BF830E948003503009F06E
:10057E0051503150EACF4BC020E3EE81FF810E94F3
:10058E001804E887F987EE81FF813296EE83FF83A8
:10059E00E885F985AA85BB85AE17BF0750F02F5F9A
:1005AE00A885B985EA85FB85EA1BFB0BEA87FB87E5
:1005BE00EFCF2A3328F003FF02C0295F01C0295D67
:1005CE0004FD1AC0213320F4A885B985119709F4CA
:1005DE0009C0531710F000FF01C013C020E207FF3F
:1005EE000BC020E3006102FF07C00B7F4A930E94FD
:1005FE008D03503009F051500E948003503009F0A5
:10060E0051503150A885B985129708F0B5CF00FF2B
:10061E0008C0503031F05150E0E2EA930E948D0351
:10062E00F8CF10E0E0CEAC85BD850E9414040E9488
:10063E00280464960895FF92F82E26970E942304AC
:10064E000E94A503309719F4EFEFFFEF23C0DE01F0
:10065E0016960E9407048D010E94A503EE83FF8368
:10066E00E0E0E887E987DE011A960E9407040E94FF
:10067E001404FA93EA931A930A93EEEAF1E0FA93CA
:10068E00EA93DE011A96A3DE9F01AE81BF81E0E000
:10069E00EC93F9010E942A042A96FF900895BA93CA
:1006AE00AA93A991B991EE27FF276D91662311F0B8
:1006BE003196FBCF0895BA93AA93AA27BB27E99147
:1006CE00F9910590002011F01196FBCFFD010895D0
:1006DE000E94B103A0EA0E94E503A0E00C94E5039A
:1006EE000E946A01A0E30C946F010E94FB000C941F
:1006FE006A012A93AD85BE85EF85F889099508951F
:10070E00E889F9893497E88BF98B0895AD85BE8514
:10071E00EF85F88909950895A889B98914960E94DC
:10072E001404EE83FF83AE81BF810895A889B98931
:10073E0014960E941404EA87FB870895DE011C9626
:10074E000E9407040E9414040895A898A998A09ADC
:10075E00A19815C0A198A098EE270000999B089526
:10076E00989B089504D0A19A02D0A09AE1E062E08D
:10077E0007C0A19AA09A03D0A098F9DFA19863E0D0
:10078E006A95F1F7089578E0A098F1DF989BFECF77
:10079E00EEDF889499990894A09AF1DFEE1F7A956E
:1007AE0099F77A2F772311F4A19801C0A19ADFDF70
:1007BE00A098E5DFA09ADBDFA198D9CF78E0AA0F49
:1007CE0010F4A19801C0A19ADADFA098D0DF989B0F
:1007DE00FECFCDDFA09A7A9591F7A198C8DFA098A9
:1007EE00CEDFE1E09999EE27A09AC1CF109639F0AD
:1007FE00A8958AEF90E00197F1F71197C9F7089540
:10080E000024AF0DB01D0895F195E195F0400895C7
:10081E006F2F660F660B762F0895ED91FC91119751
:10082E0008950590F491E02D08957A936A93FA93C2
:10083E00EA9308955A934A933A932A931A930A93F2
:10084E0008955D814C813B812A811981088108952B
:00000001FF
