:0C0000000C943D000C9400000C940000D7
:10000C000C9400000C9400000C9400000C94000064
:10001C000C9400000C9400000C9400000C94000054
:10002C000C9400000C9400000C9400000C94000044
:10003C000C9400000C9400000C9400000C94000034
:10004C000C9400000C9400004D6F74696F6E20646A
:10005C0065746563746564006D6F74696F6E6C654F
:10006C007373000080C00200600270000000F894FE
:10007C00EE27ECBBF1E0F5BFE5BF8DE0A2E0BB27BE
:10008C00ED938A95E9F780E098E0A0E6ED9301976F
:10009C00E9F7E2E7F0E085919591009761F0A59181
:1000AC00B59105901590BF01F00105900D92019747
:1000BC00E1F7FB01F0CFEFE5EDBFE8E0EEBFC0E606
:1000CC00D2E00C946900E0E0EABBEBBBE7BBE8BB19
:1000DC00E4BBE5BBE1BBE2BBE3BFE2BFECBFEFBD02
:1000EC00EEBDEDBDECBDE7BDE6BDEBBDEABDE9BDCA
:1000FC00E8BDE2BDE5BDE4BDE3BDE9BFE5BFE4BFDE
:10010C00EAB9E0E8E8B9E0E0E0BFE6B9EDB9E6BF8E
:10011C00A0E17FD0E0E0C899E1E00E2F112700307C
:10012C0011F4909801C0909A42D0E0E0EA93A0E0DC
:10013C0031D0E1E0F0E0E017F10719F4A4E5B0E00C
:10014C0002C0A4E6B0E052D0ACE2B1E00E9444019F
:10015C00E1CFFFCFAA93E5B3EF70AE2FE881E07F3C
:10016C00EA2BE5BB82E08A95F1F7AA9A82E08A95A0
:10017C00F1F7AA9882E08A95F1F773C0AA93A88147
:10018C00E9DFE881E295E883A881E4DF81E18A95E3
:10019C00F1F767C0AA93E881F0E0E05AFD4FE081E7
:1001AC00A981AE0FEBDF5980488022960895A2E01A
:1001BC005AD0ACE0E3DFA1E056D0E0E04E2E5E2E4C
:1001CC000895AA93A881AA3011F0571448F0E0E0E2
:1001DC00EA934394A42DDEDFA881AA3009F441C030
:1001EC005394A89AA881CADFA8983BC0BA93AA9343
:1001FC001A93E981FA813196E983FA833197E49174
:10020C001E2FE03019F0A12FDCDFF3CF18812396DD
:10021C000895AA93E4B3E06FE4BBA29AA09AA19AC2
:10022C00AA98A898A9987880E881E058E09362028F
:10023C00E881E054E0936302A4E1B0E00E94440141
:10024C0017D016D015D0A0E285DF81E28A95F1F7A0
:10025C00A8E294DFA4E092DFA5E890DFA6E08EDFB1
:10026C00A6DF219608958ADFA3E0B0E00C94440148
:10027C00A0E370DF81E28A95F1F70895109639F0CA
:10028C00A8958AEF90E00197F1F71197C9F70895B7
:00000001FF
